:10000000B8C00000D7C00000D5C00000D3C00000B9
:10001000D1C00000CFC00000CDC00000CBC00000A8
:10002000C9C00000C7C00000C5C00000C3C00000B8
:10003000C1C00000BFC00000BDC00000BBC00000C8
:10004000B9C000000C94980E0C94C50E0C94F20EDE
:100050000C946B0EAFC00000ADC00000ABC0000040
:10006000A9C00000A7C00000A5C00000A3C00000F8
:10007000A1C000009FC000009DC000009BC0000008
:100080000C944C0F0C94790F0C94A60F0C941F0F2A
:1000900091C000008FC000008DC000008BC0000028
:1000A00089C0000087C000000C9400100C942D1033
:1000B0000C945A100C94D30F7DC000000C94B41013
:1000C0000C94E1100C940E110C94871073C0000076
:1000D00071C000006FC000006DC000006BC0000068
:1000E00069C000000C94CB090C94C1090C94D5098B
:1000F0000C94F0080C941B090C94B7090C94C508D7
:100100000C94460957C0000055C0000053C00000C1
:1001100051C000004FC000000C94A3090C94AD091D
:100120000C9499090C948F090C9485090C947B0903
:100130000C9471099806BD063707CA0637078A0668
:10014000A606370737073707370737075E0637072B
:1001500037073707370737073707E2063707370705
:10016000120704030302020100FFFEFDFCFBF9F786
:10017000F4EF11241FBECFEFD1E8DEBFCDBF00E00A
:100180000CBF12E0A0E0B2E0E6EBF6E200E00BBF4D
:1001900002C007900D92AE30B107D9F726E0AEE06D
:1001A000B2E001C01D92A735B207E1F70E94291203
:1001B0000C94591325CF0E94270E2091120222235E
:1001C000D9F04091560630E020911202642F732F2F
:1001D0000E945012FB018FEF9FEF642F732F0E943C
:1001E000501230E0629FC001639F900D729F900D8E
:1001F00011248E0F9F1F08956091560670E00E9493
:100200005012CB0108950E942C0E0E94460E1092AF
:100210000E0210920F021092100210921102109210
:100220001402109213020C94530E0E94350E109279
:1002300012020895E8DFF9DF0C94380E0F931F9334
:10024000CF93DF93EC010E94270E8C01BE0180E06A
:1002500090E02091560630E040E050E00E944112CC
:10026000DC01CB01A80160E070E0480F591F6A1F54
:100270007B1F40930E0250930F0260931002709305
:10028000110240910E0250910F0260911002709184
:100290001102AB016627772740930E0250930F029D
:1002A000609310027093110240910E0250910F0260
:1002B000609110027091110241155105610571059F
:1002C00091F040910E0250910F02609110027091D6
:1002D00011020196080F191F1093140200931302C4
:1002E0000E942C0E08C0080F191F109314020093CF
:1002F00013020E942E0E80911302909114028436F4
:10030000910530F48C599F4F9093140280931302FF
:1003100080911302909114020E943B0EDF91CF91C5
:100320001F910F910895109212020E94550E809312
:100330005606089580910E0290910F02A09110022E
:10034000B09111020097A105B105C9F080910E028C
:1003500090910F02A0911002B09111020197A10992
:10036000B10980930E0290930F02A0931002B093F4
:1003700011020097A105B10511F40E942E0E809183
:1003800012028F5F8093120290915606891748F0EF
:1003900010921202E0911502F0911602309709F0C6
:1003A000199508950E942C0EE0911702F091180201
:1003B000309709F0199508959093160280931502CD
:1003C0000895909318028093170208958BE694E0A5
:1003D000A1E0B0E00197A109B109E1F7089580918A
:1003E0000502882321F18091190290911A02029747
:1003F000F4F4809104028823D1F0E8DF84E08CB922
:1004000042E750E061E670E08DEF94E00E940E1349
:1004100062E78DEF94E0F7D08091190290911A0273
:10042000019690931A028093190210920402089583
:10043000CF93DF9320910502211134C0EC0185E8B0
:10044000EFE6F5E0DF01982F1D929A95E9F7EF812D
:10045000F885AFE6B5E001900D928A95E1F78981C4
:100460009A810DD342E750E062E670E08BE894E0B9
:100470000E940E1384E08CB98091770590917805E5
:10048000019781F48091700590917105877099278B
:10049000019741F480E489B962E78BE894E0DF9149
:1004A000CF91B1C0DF91CF9108959091050299232A
:1004B00051F0893E19F484E082BB089580E489B943
:1004C00081E08093040208954F925F926F927F9231
:1004D0008F92AF92CF92EF920F931F93CF93DF93B0
:1004E000CDB7DEB7A9E8B0E0AE19B109A35EBD4F44
:1004F000302F3D012801942D931B9E1538F4F201F5
:1005000091912F01F30191933F01F5CF423059F4BE
:100510003BE03E0D40913D0650913E065E934E936A
:1005200040E050E82BC0189731E13E0D9091310624
:100530009C939091320611969C931197909133065B
:1005400012969C9312979091340613969C9313974E
:100550009091350614969C931497909136061596B3
:100560009C9315979091370616969C9316979091A9
:10057000380617969C93179740E050EC823059F458
:10058000FB0160817181FD0172936293CF01FA01D9
:10059000E064F8600DC0CD0108973A5F18E0FB01F8
:1005A000DC0101900D921A95E1F7FA01E064FC601C
:1005B0004EEF5AECDC01129711965C934E93119713
:1005C0002C93C11002C0E16001C0E162DC0115970B
:1005D0001196FC93EE9311973C93B0932502A09350
:1005E0002402482D6A2D8DE192E0DF91CF911F9179
:1005F0000F91EF90CF90AF908F907F906F905F9022
:100600004F900C942E0D8F92AF92CF92EF920F934A
:100610001F93CF93DF931F921F92CDB7DEB722E0D7
:1006200030E03A83298320911B0230911C02A901FA
:100630004F5F5F4F50931C0240931B02812C32E0AE
:10064000A32ECC24C394E62E8C0142E0BE016F5F42
:100650007F4F82E039DF0F900F90DF91CF911F9194
:100660000F91EF90CF90AF908F90089586E00C940B
:100670006B0CCF93DF9300D000D0CDB7DEB73BD06B
:1006800032D075D1DBD48111FFCF789481E090E036
:100690009C838B838EEF9AEC9A83898382E18E838D
:1006A0001D82BE016D5F7F4F83E56ED7BE016F5F18
:1006B0007F4F80E569D7BE016A5F7F4F80E064D7D6
:1006C000BE016B5F7F4F84E05FD762E080E00E94F5
:1006D0006D0DCCDF26960FB6F894DEBF0FBECDBFF2
:1006E000DF91CF9108955E9A569AA29A9A9A729A39
:1006F0006A9A08950895CF93DF931F92CDB7DEB71E
:100700008FEF80936400809365008FB78983F8949E
:1007100089815F9350E85093610050E050936100ED
:100720005F918FBF0F90DF91CF910895CF93DF93AB
:100730001F92CDB7DEB79FB79983F8949981823025
:1007400040F4E82FF0E0EC59FF4F6095808168237A
:1007500060839FBF0F90DF91CF910895CF93DF9378
:100760001F92CDB7DEB79FB79983F89499818230F5
:1007700038F4E82FF0E0EC59FF4F8081682B60835C
:100780009FBF0F90DF91CF910895CF93DF931F927A
:10079000CDB7DEB78FB78983F89489810F90DF9149
:1007A000CF9108958091AC02882319F081E0809365
:1007B000280608950F931F93CF93DF93C091F405FC
:1007C000D091F505F8DC9C018091F4059091F50538
:1007D000C817D90799F7CE01A0E0B0E0BC015527B2
:1007E0004427C901A0E0B0E08C019D01042B152B2A
:1007F000262B372BC901B801DF91CF911F910F91A3
:100800000895CF93DF938091F4059091F5050196BB
:100810009093F5058093F405B8DFD82FE091AB02F3
:10082000EF3FF1F0CAE0CE9FF0011124EA50FA4FF9
:100830008185811115C080819181A281B381209130
:10084000F4053091F5052A173B0751F4F7DCE091E8
:10085000AB02CE9FF0011124EA50FA4F81E081876C
:10086000DFBFDF91CF910895CF92DF92EF92FF9299
:100870000F931F93CF93DF938F3F61F1C82F9ADFC0
:100880002AE0C29FE0011124CA50DA4F0881198181
:100890002A813B8168017901C61AD70AE80AF90A58
:1008A000D701C6012FEFC216D206E2062FE7F206E5
:1008B00068F42985211117C0C114D10421E0E20692
:1008C000F10488F4BBDC81E089870DC081E080936E
:1008D000280609C0DF91CF911F910F91FF90EF90F3
:1008E000DF90CF9090CCDF91CF911F910F91FF902F
:1008F000EF90DF90CF900895809128068823B1F182
:10090000109228062091AC02222381F18091AA0244
:10091000A091A902E091AB028F3F39F4AF3F29F4D7
:10092000E093A902E093AA020AC08AE0A89FD0013E
:100930001124AA50BA4F1896EC93E093A9029AE0BA
:100940009E9FF0011124EA50FA4F80858093AB02FC
:10095000E091A9029E9FF0011124EA50FA4F9FEF07
:100960009087920F9093AC0291117ECF08951092D0
:10097000AC02109228061092F5051092F4058FEF44
:100980008093AB028093AA028093A902E6EFF5E080
:100990008087158214823A9696E0E832F907C1F70B
:1009A0001092A80281E094E007DD82ED93E009DD7A
:1009B000BACC1F93CF93DF93E8DEC82F9DDFCFBF64
:1009C000DAE01FEFC091AA02CF3F51F1DEDEDC9FDB
:1009D000D0011124AA50BA4F18969C9118971496DA
:1009E000ED91FC91159716962D913C9117971896BD
:1009F0001C93189715961C921E92149717961C928A
:100A00001E92169719961C929093AA029F3F11F47A
:100A10009093A9028FBF3097A9F2C9011995D2CF3F
:100A2000DF91CF911F91089580E00895C2CFCF93B9
:100A3000DF938DEA92E0ABD0C2EBD2E08EEB92E096
:100A400099838883BE018DEA92E0A8D089E493E07F
:100A50009D838C8366EB72E08DEA92E09FD084EDFB
:100A600093E0998788876AEB72E08DEA92E0DF91E4
:100A7000CF9194C060E070E08DEA92E0B4C000973E
:100A800021F0BC018DEA92E089C008958F929F9277
:100A9000AF92BF92CF92DF92EF92FF920F931F938C
:100AA000CF93DF931F92CDB7DEB72FB72983F8948A
:100AB000A980DC0114962C91211103C000E010E004
:100AC00056C06A01B62E7C01FC0100811181452BC4
:100AD000B1F048010115110589F3D60112966D9107
:100AE0007C911397ED91FC91D8018D919C91199572
:100AF000811109C04801F80102811381EBCF011572
:100B0000110551F4DBCFB11032C0D7018D919C910A
:100B10000817190759F403C0611129C04801F801E9
:100B200082819381D7018D939C9308C0F8018281C3
:100B30009381D40113969C938E931297F70182812F
:100B400093810817190711F493828282D7011496B2
:100B50008C911497815014968C9314978D919C913D
:100B60001197892B21F413961C921E921297AFBEF7
:100B7000C8010F90DF91CF911F910F91FF90EF90DF
:100B8000DF90CF90BF90AF909F908F900895FC0121
:100B9000118210821382128214820895CF93DF9300
:100BA0001F92CDB7DEB7FC018FB78983F894998186
:100BB0008481811103C07183608306C0A281B381E7
:100BC00013967C936E93129773836283DB01139663
:100BD0001C921E92129784818F5F84839FBF0F9017
:100BE000DF91CF910895AB0160E050CF04C0615018
:100BF0007109810991096115710581059105B9F79F
:100C00000895CF93809141018F71883091F481E0F4
:100C100080934F0189E080934201C3E080914F01AE
:100C200080FD07C063E970E080E090E0DFDFC15045
:100C3000A9F7CF9108951F93CF93DF931F92CDB75C
:100C4000DEB7182F809150068F3051F51F3009F410
:100C500015C11092540681E09AE092D28FB7898331
:100C6000F89499817894809139018D7F809339012E
:100C7000809154068823E1F39FBF8FEF80934F014B
:100C800088E480934E0180914D01846080934D01F2
:100C9000183011F0133021F488E080935006EEC034
:100CA000812F90E0FC013397E731F10508F0DFC0B8
:100CB0008827E656FF4F8F4F0C94771283E080937E
:100CC000420180914D018B7F80934D010E94F7126C
:100CD00080936D0180916E019770887F982B90931F
:100CE0006E018FEF80934F0180E880934E0162E0A8
:100CF00070E080E090E07ADF80913901826080933B
:100D000039016FE270E080E090E070DF8FE0809367
:100D10005006B4C080915006883009F4A8C088E01D
:100D20008093420162E070E080E090E05FDF9FC06E
:100D300080915006883009F49AC083E08093420184
:100D400062E070E080E090E051DF91C08091500659
:100D50008830F1F020F4863009F089C005C0863172
:100D600019F0893109F083C089E08093420162E083
:100D700070E080E090E03ADF7AC0809150068830E1
:100D800039F0893009F473C084E0809342016FC068
:100D900038DF6DC080915006893059F028F48830D2
:100DA00009F065C02EDF05C0863119F0893109F0E0
:100DB0005EC086E08093420162E070E080E090E0F7
:100DC00015DF55C080915006883051F018F48630F8
:100DD00089F04DC08930E9F0893109F048C019C067
:100DE00010DF86E18093420162E070E080E090E0F5
:100DF000FDDE3DC089E08093420162E070E080E06A
:100E000090E0F4DE809141018F718093500689302B
:100E1000A9F586E18093420162E070E080E090E015
:100E2000E5DE25C0809150068830C1F018F4863088
:100E300029F01DC0893099F08631C9F489E080938A
:100E4000420162E070E080E090E0D0DE80914101FC
:100E50008F7180935006893089F401C0D2DE89E118
:100E60008093420162E070E080E090E0BFDE80911C
:100E700041018F71809350068F31C9F30F90DF913C
:100E8000CF911F91089580912906882349F180917F
:100E90005506811125C080915F0490916004892BD3
:100EA00031F48BE8E7DD9093600480935F048091D8
:100EB0005F0490916004892B99F01092290680912B
:100EC0004C018F7780934C0163E070E080E090E00C
:100ED0008DDE80914C01806880934C0186E1ABDE11
:100EE00080912E06882341F060E070E08AE296E06F
:100EF0007ADE009709F0BAD480915506823009F461
:100F000011C5089504C061507109810991096115E5
:100F1000710581059105B9F70895CF938091390145
:100F20008D7F8093390161E471E080E090E0EADF39
:100F3000809139018E7F8093390162E070E080E01A
:100F400090E0E0DF80913901816080933901CBE04E
:100F500066E870E080E090E0D5DF809141018F711C
:100F6000C15031F08830A1F78093500680E001C075
:100F700085E8CF9108950E94F71280936D01EEE607
:100F8000F1E080819770887F982B908380818062C8
:100F90008083ECE4F1E080818068808388E4809342
:100FA0004E018FEF80935601EDE4F1E080818C7F5C
:100FB00082608083AAE4B1E08C91807F83608C930F
:100FC00080818860808380818460808308951F93FE
:100FD000CF93DF9386E02FDE8630E1F780915501D5
:100FE0008F778093550110924E0118E0C0E0D0E059
:100FF00020914601CC0FDD1FCC0FDD1F922F907684
:10100000292F30E095E0359527959A95E1F7C22B89
:10101000D32B62E070E080E090E074DF115041F784
:1010200083E009DE8FEF80934F0188E480934E01C7
:10103000CE01DF91CF911F910C94FA12EF92FF92A3
:101040000F931F93CF9314BE80E18093350180935B
:1010500034018093330180933201E6DC81117EC03C
:1010600060E481E063DB8091390181608093390124
:10107000809139018D7F809339016BEF71E080E0C1
:1010800090E040DF809139018E7F8093390162E0EA
:1010900070E080E090E036DF8091390181608093DC
:1010A0003901CBE066E870E080E090E02BDF8091D2
:1010B00041018F71C15009F451C0883099F7809374
:1010C000500680915C01843909F048C026DFC82FA2
:1010D000811144C07CDF4FDFB9D1FDD1109255069C
:1010E0001092290689E3E82E86E0F82E2091310639
:1010F00030913206409133065091340660913506A6
:10110000709136068091370690913806AFEF0E94B5
:101110008912ADEF0E94951261F058F001E316E0DC
:101120000E94F712F80181938F01EE16FF06C1F7B6
:10113000DDCF8FED99E01FD080EF99E017D081E0EF
:101140009AE01ED074DC8BE895DC90936004809369
:101150005F048AE296E01BDD58D501C0C5E88C2FFC
:10116000CF911F910F91FF90EF9008959093680495
:1011700080936704089590936604809365040895AE
:10118000909362048093610408951F920F920FB6AA
:101190000F9211240BB60F922F933F934F935F93AF
:1011A0006F937F938F939F93AF93BF93EF93FF932F
:1011B000E0916704F09168041995FF91EF91BF9158
:1011C000AF919F918F917F916F915F914F913F91DF
:1011D0002F910F900BBE0F900FBE0F901F90189580
:1011E0001F920F920FB60F9211240BB60F922F93EE
:1011F0003F934F935F936F937F938F939F93AF939F
:10120000BF93EF93FF93E0916504F0916604199505
:10121000FF91EF91BF91AF919F918F917F916F91CE
:101220005F914F913F912F910F900BBE0F900FBE8A
:101230000F901F9018951F920F920FB60F921124C6
:101240000BB60F922F933F934F935F936F937F93C0
:101250008F939F93AF93BF93EF93FF93E0916304BA
:10126000F09164041995FF91EF91BF91AF919F9117
:101270008F917F916F915F914F913F912F910F903F
:101280000BBE0F900FBE0F901F9018951F920F92DC
:101290000FB60F9211240BB60F922F933F934F93DB
:1012A0005F936F937F938F939F93AF93BF93EF93CE
:1012B000FF93E0916104F09162041995FF91EF9121
:1012C000BF91AF919F918F917F916F915F914F915E
:1012D0003F912F910F900BBE0F900FBE0F901F905C
:1012E00018951F920F920FB60F9211240F900FBEF8
:1012F0000F901F9018951F920F920FB60F92112406
:101300000F900FBE0F901F9018951F920F920FB65F
:101310000F9211240F900FBE0F901F9018951F92DF
:101320000F920FB60F9211240F900FBE0F901F90C7
:1013300018951F920F920FB60F9211240F900FBEA7
:101340000F901F9018951F920F920FB60F921124B5
:101350000F900FBE0F901F9018951F920F920FB60F
:101360000F9211240F900FBE0F901F9018951F928F
:101370000F920FB60F9211240F900FBE0F901F9077
:1013800018951F920F920FB60F9211240F900FBE57
:101390000F901F9018951F920F920FB60F92112465
:1013A0000F900FBE0F901F9018951F920F920FB6BF
:1013B0000F9211240F900FBE0F901F9018951F933E
:1013C000CF93DF931F92CDB7DEB78FB78983F894A1
:1013D0001981E4D11FBF0F90DF91CF911F91089524
:1013E0001F93CF93DF931F92CDB7DEB78FB789835B
:1013F000F894198153D31FBF0F90DF91CF911F91A4
:10140000089581E0809354060895982F85FD02C0C9
:101410009F7303C091959F719195E2E6F1E024914D
:1014200029172CF0E1E7F1E0249192176CF48491F4
:10143000803E3CF080323CF487FF06C08F718062B2
:1014400003C080E201C08FE180680895CF93DF93ED
:10145000C1E3D6E084E08C8B83E08D8B2FEF3FEFF0
:101460003F872E873D872C879BE09B8B188E40E023
:1014700058EF6FEF77E0488759876A877B872AE0C4
:1014800031E0398B288B9AE0998F92E09A8F95E022
:101490009B8F8C8F84E8B9DF8F8B81E08A8B1E8ACB
:1014A000DF91CF910895982F85FD02C09F7303C0EF
:1014B00091959F719195E2E6F1E080E02491921779
:1014C00024F029173CF4815008958F5F31968031C4
:1014D000A9F780E0089580913F0680936201809192
:1014E000400680936301E4E6F1E0A1E3B6E08D916C
:1014F0008193EC3631E0F307D1F780913D0680937C
:10150000600180913E0680936101809148012091A5
:10151000430690E2299F9001112420768F79822B37
:101520008093480180916F01909146069F70807F63
:10153000892B80936F0180916E019091470690FBFB
:1015400083F980936E0120916F0190914C0630E1F8
:10155000939FC0011124922F9F70892B80936F015C
:1015600080914801909144069F71807E892B8093E1
:1015700048018091480697DF90914501907F8F70D8
:10158000892B809345010895CF93DF93FB018E341F
:1015900039F0893551F4808180934D0680E0FAC09E
:1015A00080818093450680E0F5C0209150062F3061
:1015B00009F4E9C08B3009F4DBC080F4EB01823020
:1015C00009F4AEC020F4882309F460C0DEC0833083
:1015D00009F4B6C0843009F485C0D7C0833509F456
:1015E00049C088F48F3491F1803509F0CEC09081E4
:1015F000818190933F06809340069093620180938F
:10160000630180E0C7C0873509F474C0803F09F0EA
:10161000BCC0708161815281438134812581968172
:10162000878170933106609332065093330640935E
:101630003406309335062093360690933706809310
:101640003806E4E6F1E0A1E3B6E08BC09081909328
:10165000460680914C06891710F4809346068091C7
:101660006F01909146069F70807F892B80936F0158
:1016700080E090C09081818190933D0680933E06EA
:10168000909360018093610180E084C08091550651
:1016900081117DC080E098EFAFEFB7E0008004C01B
:1016A000B695A795979587950A94D2F780FF71C054
:1016B000283031F088E0BFDA8830E1F726E101C058
:1016C00028E088818093440690914801907E8F7134
:1016D000892B80934801283009F441C086E1ABDAB8
:1016E00080E058C080915506811151C080818111E0
:1016F00050C035C0908190934C0680914606981753
:1017000010F49093460680916F01282F2F7030E1DE
:10171000939FC0011124822B80936F0180E03AC017
:1017200080818093480671DE80934806BCDE9091EC
:101730004501907F8F70892B8093450180E02AC0FE
:101740008081809343062091480130E2839FC0014D
:1017500011248076922F9F79892B8093480180E015
:1017600019C08D918193EC3681E0F807D1F7F7CF5E
:1017700090819093470680916E0190FB83F980934E
:101780006E0180E007C081E805C084EF03C086E8F1
:1017900001C088EEDF91CF9108950895CF92DF9236
:1017A000EF92FF920F931F93CF93DF93E0915F042B
:1017B000F0916004309761F480914C018F778093B1
:1017C0004C01EBDF80914C01806880934C0145C057
:1017D000C0904701D0907B01D7FC3FC0E080F180F2
:1017E00082E08D0DEBE8F0E0E81BF109E701CE0F98
:1017F000DF1F0D2D10E0A8014F5F5F4F60E871E023
:10180000CE0103D7FE01D292D7011896FC93EE9336
:101810001797E00FF11FC28260915F04709160041E
:101820008AE296E0BBD98BE825D990936004809337
:101830005F04892B21F481E0809329060BC08091FD
:101840004C018F7780934C01A8DF80914C01806818
:1018500080934C0180E480934F01DF91CF911F91E1
:101860000F91FF90EF90DF90CF9008950F931F930B
:10187000CF93DF938C01FC01C081D181AF81B8850A
:101880008C9180935106E82FF0E03196EA0FFB1F10
:10189000208191819D3320F4911103C091E001C01A
:1018A0009CE322952695269523708FEF289F900123
:1018B0001124929FA001939F500D1124CA0164EB43
:1018C00070E0EED560831A830983CE01DF91CF915A
:1018D0001F910F91CBC590915506911116C088307C
:1018E00029F4A9D91092290688E0089580915F040F
:1018F00090916004892B21F086E19DD986E00895BE
:1019000081E08093290686E0089586E8089504C062
:101910006150710981099109611571058105910570
:10192000B9F7089510925506E0916904E83028F45B
:10193000F0E0EA5FFD4F808101C085E860912F06ED
:101940007091300691C51F93CF93DF931F92CDB74F
:10195000DEB7182F6623E1F020916C0190914D06BF
:1019600030E1939FC0011124922F9F70892B8093A7
:101970006C011230D0F490916C0180914506880F73
:101980008E70917F892B80936C0110926F0122C021
:1019900080916C018F7080936C01123030F48091D3
:1019A0006C018E6080936C0115C080914C06E0E163
:1019B0008E9FC001112490914606892B80936F0160
:1019C00090916C0180914506880F8E70917F892BD4
:1019D00080936C0189E12FD98931E1F71130A1F4AD
:1019E00080915106833140F061E073E080E090E047
:1019F0008EDF109251060DC06BEA70E080E090E03F
:101A000086DF1092510605C06CE070E080E090E047
:101A10007EDF8FB78983F8941981809139018260C4
:101A20008093390100000000809139018D7F8093FF
:101A300039016091520670915306FB01408150E0DC
:101A40004150510980E891E0E0D581E0809355064E
:101A50001FBF0F90DF91CF911F910895FC01962F2A
:101A600080915506811116C0F0933006E0932F0641
:101A70000780F085E02DF0935306E09352068081B5
:101A8000815080935106EF2B39F0642F892F5BDF53
:101A900080E0089586E8089588EE0895CF93C09178
:101AA0005506C130C1F480914201829586958770B8
:101AB0008093690482E08093550680915F04909141
:101AC0006004892B29F489E0B6D8C093290603C0A5
:101AD00086E1CF91B0C8CF910895882351F18091CC
:101AE0004D018C7F80934D0180914D0188608093E2
:101AF0004D0180914A01807F836080934A018091EB
:101B00004D01846080934D0180914D01837011F0EF
:101B100085E8089580914D0183FFFACF80914D01B2
:101B200082FFF6CF80914A018F70833089F780E081
:101B3000089580914D01877F80934D0180914A01E6
:101B4000807F876080934A0180914D0184608093FB
:101B50004D01613041F480914D018C7F8160809313
:101B60004D0185E817C0623041F480914D018C7FB2
:101B7000826080934D0185E80DC0662311F06330CB
:101B800041F480914D018C7F80934D0185E860E0A8
:101B900001C088EE20914D01237030E070E02617DF
:101BA000370709F0B5CF90914D0193FDB1CF9091DA
:101BB0004D0192FDADCF90914A019F70933009F491
:101BC000B6CF0895FC018081803D2CF08FEC80938E
:101BD0006A046FE012C0873A2CF486EA80936A04A4
:101BE00060E00BC080936A04082E000C990B865AA3
:101BF0009F4F63E070E068D46F5F80915501807FF4
:101C0000682B6093550180E0089586EA80936A040A
:101C10008AE694E0D7DF61E080E00E94960360E10D
:101C200080E00E94960380E008950C949A010C9441
:101C3000D201B19A0895EFE6F0E080818D7F808334
:101C40000895EFE6F0E080818160808308958091BF
:101C50008400909185000895EEDFEBCFEADFEFE698
:101C6000F0E08081826080830895EBDFB09A089570
:101C700080E890E057C3E9E8F0E02081922B908360
:101C8000E8E8F0E09081892B80830895CF93DF937B
:101C90001F92CDB7DEB78FB78983F89489810F90F3
:101CA000DF91CF9108958FBF089580E890E0E3D24F
:101CB00065E17EE080E890E08CD3C3DF67E17EE001
:101CC00080E890E0A6D3B7DFE1E8F0E080818160B2
:101CD000808388E008951F920F920FB60F9211240F
:101CE0000BB60F922F933F934F935F936F937F9316
:101CF0008F939F93AF93BF93EF93FF93E0918904EA
:101D0000F0918A04309709F01995FF91EF91BF91F6
:101D1000AF919F918F917F916F915F914F913F9183
:101D20002F910F900BBE0F900FBE0F901F90189524
:101D30001F920F920FB60F9211240BB60F922F9392
:101D40003F934F935F936F937F938F939F93AF9343
:101D5000BF93EF93FF93E0918704F091880430974D
:101D600009F01995FF91EF91BF91AF919F918F91DC
:101D70007F916F915F914F913F912F910F900BBE8B
:101D80000F900FBE0F901F9018951F920F920FB6D5
:101D90000F9211240BB60F922F933F934F935F93A3
:101DA0006F937F938F939F93AF93BF93EF93FF9323
:101DB000E0918504F0918604309709F01995FF9120
:101DC000EF91BF91AF919F918F917F916F915F91B3
:101DD0004F913F912F910F900BBE0F900FBE0F9020
:101DE0001F9018951F920F920FB60F9211240BB6E9
:101DF0000F922F933F934F935F936F937F938F93A4
:101E00009F93AF93BF93EF93FF93E0918304F0917F
:101E10008404309709F01995FF91EF91BF91AF912C
:101E20009F918F917F916F915F914F913F912F91F2
:101E30000F900BBE0F900FBE0F901F9018951F9222
:101E40000F920FB60F9211240BB60F922F933F9360
:101E50004F935F936F937F938F939F93AF93BF93B2
:101E6000EF93FF93E0918104F0918204309709F0A1
:101E70001995FF91EF91BF91AF919F918F917F91B4
:101E80006F915F914F913F912F910F900BBE0F90EB
:101E90000FBE0F901F9018951F920F920FB60F92C2
:101EA00011240BB60F922F933F934F935F936F9331
:101EB0007F938F939F93AF93BF93EF93FF93E091A3
:101EC0007F04F0918004309709F01995FF91EF910C
:101ED000BF91AF919F918F917F916F915F914F9142
:101EE0003F912F910F900BBE0F900FBE0F901F9040
:101EF00018951F920F920FB60F9211240BB60F92E6
:101F00002F933F934F935F936F937F938F939F9301
:101F1000AF93BF93EF93FF93E0917D04F0917E0424
:101F2000309709F01995FF91EF91BF91AF919F9173
:101F30008F917F916F915F914F913F912F910F9072
:101F40000BBE0F900FBE0F901F9018951F920F920F
:101F50000FB60F9211240BB60F922F933F934F930E
:101F60005F936F937F938F939F93AF93BF93EF9301
:101F7000FF93E0917B04F0917C04309709F0199570
:101F8000FF91EF91BF91AF919F918F917F916F9151
:101F90005F914F913F912F910F900BBE0F900FBE0D
:101FA0000F901F9018951F920F920FB60F92112449
:101FB0000BB60F922F933F934F935F936F937F9343
:101FC0008F939F93AF93BF93EF93FF93E091790427
:101FD000F0917A04309709F01995FF91EF91BF9134
:101FE000AF919F918F917F916F915F914F913F91B1
:101FF0002F910F900BBE0F900FBE0F901F90189552
:102000001F920F920FB60F9211240BB60F922F93BF
:102010003F934F935F936F937F938F939F93AF9370
:10202000BF93EF93FF93E0917704F091780430979A
:1020300009F01995FF91EF91BF91AF919F918F9109
:102040007F916F915F914F913F912F910F900BBEB8
:102050000F900FBE0F901F9018951F920F920FB602
:102060000F9211240BB60F922F933F934F935F93D0
:102070006F937F938F939F93AF93BF93EF93FF9350
:10208000E0917504F0917604309709F01995FF916D
:10209000EF91BF91AF919F918F917F916F915F91E0
:1020A0004F913F912F910F900BBE0F900FBE0F904D
:1020B0001F9018951F920F920FB60F9211240BB616
:1020C0000F922F933F934F935F936F937F938F93D1
:1020D0009F93AF93BF93EF93FF93E0917304F091BD
:1020E0007404309709F01995FF91EF91BF91AF916A
:1020F0009F918F917F916F915F914F913F912F9120
:102100000F900BBE0F900FBE0F901F9018951F924F
:102110000F920FB60F9211240BB60F922F933F938D
:102120004F935F936F937F938F939F93AF93BF93DF
:10213000EF93FF93E0917104F0917204309709F0EE
:102140001995FF91EF91BF91AF919F918F917F91E1
:102150006F915F914F913F912F910F900BBE0F9018
:102160000FBE0F901F9018951F920F920FB60F92EF
:1021700011240BB60F922F933F934F935F936F935E
:102180007F938F939F93AF93BF93EF93FF93E091D0
:102190006F04F0917004309709F01995FF91EF9159
:1021A000BF91AF919F918F917F916F915F914F916F
:1021B0003F912F910F900BBE0F900FBE0F901F906D
:1021C00018951F920F920FB60F9211240BB60F9213
:1021D0002F933F934F935F936F937F938F939F932F
:1021E000AF93BF93EF93FF93E0916D04F0916E0472
:1021F000309709F01995FF91EF91BF91AF919F91A1
:102200008F917F916F915F914F913F912F910F909F
:102210000BBE0F900FBE0F901F9018951F920F923C
:102220000FB60F9211240BB60F922F933F934F933B
:102230005F936F937F938F939F93AF93BF93EF932E
:10224000FF93E0916B04F0916C04309709F01995BD
:10225000FF91EF91BF91AF919F918F917F916F917E
:102260005F914F913F912F910F900BBE0F900FBE3A
:102270000F901F9018951F93CF93DF931F92CDB7A8
:10228000DEB72FB72983F8941981009709F444C069
:102290008837910531F461E080E00E94960360E1A7
:1022A00004C0803C910519F462E080E033C08C34B6
:1022B000910511F464E0F9CF8038910511F468E0DC
:1022C000F4CF8434910511F460E2EFCF803B9105A7
:1022D00011F460E4EACF883B910511F460E8E5CFA2
:1022E000883C910511F461E014C08039910511F426
:1022F00068E00FC0803A910511F460E10AC08032B5
:1023000021E0920711F460E204C08334914021F48B
:1023100060E481E00E9496031FBF0F90DF91CF9190
:102320001F9108951F93CF93DF931F92CDB7DEB710
:102330002FB72983F8941981009709F444C088378E
:10234000910531F461E080E00E94AE0360E104C0D9
:10235000803C910519F462E080E033C08C34910533
:1023600011F464E0F9CF8038910511F468E0F4CFFE
:102370008434910511F460E2EFCF803B910511F4B4
:1023800060E4EACF883B910511F460E8E5CF883C32
:10239000910511F461E014C08039910511F468E0F1
:1023A0000FC0803A910511F460E10AC0803221E04B
:1023B000920711F460E204C08334914021F460E498
:1023C00081E00E94AE031FBF0F90DF91CF911F915C
:1023D00008958038910529F470938A0460938904E4
:1023E00008958039910529F47093820460938104E3
:1023F0000895803A910529F470937A0460937904E2
:1024000008958032914021F47093720460937104B6
:1024100008958038910529F47093880460938704A7
:1024200008958039910529F47093800460937F04A6
:102430000895803A910529F47093780460937704A5
:1024400008958032914021F47093700460936F047A
:1024500008950E9439030E947A030E9416050E9483
:1024600043070E94EF01F9CF0C945502CF93DF93FD
:10247000EC010E94180289819A81DF91CF910C941E
:102480003F05DB018F939F933AD0BF91AF91A29FFD
:10249000800D911DA39F900DB29F900D1124089562
:1024A000AA1BBB1B51E107C0AA1FBB1FA617B7077A
:1024B00010F0A61BB70B881F991F5A95A9F7809596
:1024C0009095BC01CD01089597FB072E16F400945A
:1024D00006D077FD08D0E4DF07FC05D03EF49095E8
:1024E00081959F4F0895709561957F4F0895EE0FE8
:1024F000FF1F881F8BBF0790F691E02D199421D004
:10250000A59F900DB49F900DA49F800D911D112447
:1025100008950024A7FD00942A0F301D401D501D72
:10252000601D701D801D901D08950024A7FD00945E
:102530002A17300540055005600570058005900597
:102540000895A29FB001B39FC001A39F700D811D8C
:102550001124911DB29F700D811D1124911D0895AC
:102560008F929F92AF92BF92CF92DF92EF92FF92A3
:10257000CF93DF93EC01688179818A819B8161151A
:1025800071058105910521F464E279ED8BE597E011
:102590002DE133EF41E050E048D049015A019B0161
:1025A000AC01A7EAB1E4ABDF6B017C01ACEEB4EFA8
:1025B000A501940158D0DC01CB018C0D9D1DAE1DF1
:1025C000BF1DB7FF03C00197A109B0488883998355
:1025D000AA83BB839F77DF91CF91FF90EF90DF902D
:1025E000CF90BF90AF909F908F900895B9CF80E02B
:1025F00092E0B6CFA0E0B0E0809300029093010299
:10260000A0930202B09303020895FB01DC0102C013
:1026100001900D9241505040D8F70895DC0101C05F
:102620006D9341505040E0F70895052E97FB16F446
:1026300000940FD057FD05D01AD007FC02D046F405
:1026400008C050954095309521953F4F4F4F5F4FB3
:10265000089590958095709561957F4F8F4F9F4F0E
:102660000895B7FF4CCF4BDF821B930B0895A1E277
:102670001A2EAA1BBB1BFD010DC0AA1FBB1FEE1FFC
:10268000FF1FA217B307E407F50720F0A21BB30B47
:10269000E40BF50B661F771F881F991F1A9469F7C3
:1026A00060957095809590959B01AC01BD01CF011F
:0626B0000895F894FFCF2D
:0E26B600010000000101008785E185E98585AE
:00000001FF
