:10000000B8C00000D7C00000D5C00000D3C00000B9
:10001000D1C00000CFC00000CDC00000CBC00000A8
:10002000C9C00000C7C00000C5C00000C3C00000B8
:10003000C1C00000BFC00000BDC00000BBC00000C8
:10004000B9C000000C947D0F0C94AA0F0C94D70F2C
:100050000C94500FAFC00000ADC00000ABC000005A
:10006000A9C00000A7C00000A5C00000A3C00000F8
:10007000A1C000009FC000009DC000009BC0000008
:100080000C9431100C945E100C948B100C94041092
:1000900091C000008FC000008DC000008BC0000028
:1000A00089C0000087C000000C94E5100C94121168
:1000B0000C943F110C94B8107DC000000C94991161
:1000C0000C94C6110C94F3110C946C1173C00000C5
:1000D00071C000006FC000006DC000006BC0000068
:1000E00069C000000C94FD090C94070A0C94F309F4
:1000F0000C9472090C949D090C94110A0C944709F4
:100100000C94C80957C0000055C0000053C000003F
:1001100051C000004FC000000C94250A0C941B0A2B
:100120000C942F0A0C94390A0C94430A0C944D0A2F
:100130000C94570ACA06F106E506FE06E506BD065A
:10014000D706E506E506E506E506E5069106E506B9
:10015000E506E506E506E506E5061D07E506E5060E
:10016000560704030302020100FFFEFDFCFBF9F742
:10017000F4EF11241FBECFEFD1E8DEBFCDBF00E00A
:100180000CBF12E0A0E0B2E0E6EFF8E200E00BBF47
:1001900002C007900D92A232B107D9F725E0A2E282
:1001A000B2E001C01D92A237B207E1F70E944E13E0
:1001B0000C94791425CF0E94F80E20912602222358
:1001C000D9F04091710530E020912602642F732F01
:1001D0000E947713FB018FEF9FEF642F732F0E9414
:1001E000771330E0629FC001639F900D729F900D66
:1001F00011248E0F9F1F08956091710570E00E9479
:100200007713CB0108950E94FD0E0E94210F1092DA
:1002100022021092230210922402109225021092C0
:100220002802109227020C942E0F0E940B0F10929E
:1002300026020895E8DFF9DF0C94120F0F931F9345
:10024000CF93DF93EC010E94F80E8C01BE0180E099
:1002500090E02091710530E040E050E00E9468138A
:10026000DC01CB01A80160E070E0480F591F6A1F54
:100270007B1F4093220250932302609324027093C9
:100280002502409122025091230260912402709134
:100290002502AB0166277727409322025093230261
:1002A0006093240270932502409122025091230210
:1002B0006091240270912502411551056105710577
:1002C00091F040912202509123026091240270919A
:1002D00025020196080F191F109328020093270288
:1002E0000E94FD0E08C0080F191F109328020093EA
:1002F00027020E94040F80912702909128028436E1
:10030000910530F48C599F4F9093280280932702D7
:1003100080912702909128020E94160FDF91CF91C1
:100320001F910F910895109226020E94300F809322
:10033000710508958091220290912302A0912402D8
:10034000B09125020097A105B105C9F08091220264
:1003500090912302A0912402B09125020197A10956
:10036000B1098093220290932302A0932402B093B8
:1003700025020097A105B10511F40E94040F809198
:1003800026028F5F8093260290917105891748F0AD
:1003900010922602E0912902F0912A02309709F08A
:1003A000199508950E94FD0EE0912B02F0912C0208
:1003B000309709F01995089590932A0280932902A5
:1003C000089590932C0280932B02089504C06150ED
:1003D0007109810991096115710581059105B9F7C7
:1003E000089580912D02882391F0809104029091CC
:1003F0000502FC0101900020E9F73197BF01681B5D
:10040000790BD3D066E578E584E190E0DFCF0895FD
:100410000F931F93CF93DF93209106022223E9F0DD
:10042000EC010EE914E081E7F80111928A95E9F7F1
:10043000EF81F88581E7D80101900D928A95E1F767
:1004400089819A8145D3F8018085918583309A4AC4
:1004500021F464E188EA94E0A8D0DF91CF911F9164
:100460000F91089508954F925F926F927F928F92AD
:10047000AF92CF92EF920F931F93CF93DF93CDB7AD
:10048000DEB7A9E8B0E0AE19B109FD01E05DFD4FAE
:100490003F01EE2079F0D80144244A944E0C512CAF
:1004A0009FEF491A590A040D151D9D919193A017AC
:1004B000B107D9F7423061F43BE03E0DD3014091E2
:1004C0005805509159055E934E9340E050E826C080
:1004D000D301189731E13E0DECE4F5E090819C9357
:1004E000918111969C931197928112969C931297E9
:1004F000938113969C931397948114969C931497CD
:10050000958115969C931597968116969C931697B0
:10051000978117969C93179740E050EC823059F4DE
:10052000FB0180819181FD01929382933F01CA0179
:10053000806498600FC03D01F8E06F1A71083A5F5F
:1005400088E0FB01D30101900D928A95E1F7CA0181
:1005500080649C604EEF5AECF301329751834083E4
:1005600031972083C11002C0816001C08162F30114
:10057000359791838083D30116973C93B0933802CB
:10058000A0933702482D6A2D80E392E00E94040E6A
:10059000DF91CF911F910F91EF90CF90AF908F90FF
:1005A0007F906F905F904F9008958F92AF92CF920F
:1005B000EF920F931F93CF93DF931F921F92CDB7AC
:1005C000DEB721E03AEA3A83298320912E02309166
:1005D0002F02A9014F5F5F4F50932F0240932E02CD
:1005E000812C6894AA24A1F8C12CE62E8C0142E04B
:1005F000BE016F5F7F4F82E036DF0F900F90DF917B
:10060000CF911F910F91EF90CF90AF908F90089561
:1006100086E00C94310D0895CF93DF9300D000D085
:10062000CDB7DEB739D036D0AED17FD58111FFCF6F
:10063000789482E09AEA9A8389838EEF9AEC9C837D
:100640008B838CE08D831E82BE016F5F7F4F83E5BD
:100650000E94600BBE016D5F7F4F80E50E94600BC2
:10066000BE016B5F7F4F80E00E94600BBE016A5F3E
:100670007F4F84E00E94600B62E080E00E94400EA9
:10068000C7DF26960FB6F894DEBF0FBECDBFDF9151
:10069000CF91089508950895CF93DF931F92CDB71A
:1006A000DEB78FEF80936400809365008FB78983F6
:1006B000F89489815F9350E85093610050E0509323
:1006C00061005F918FBF0F90DF91CF910895CF931D
:1006D000DF931F92CDB7DEB79FB79983F8949981C6
:1006E000823040F4E82FF0E0EC59FF4F60958081B4
:1006F000682360839FBF0F90DF91CF910895CF93C0
:10070000DF931F92CDB7DEB79FB79983F894998195
:10071000823038F4E82FF0E0EC59FF4F8081682BED
:1007200060839FBF0F90DF91CF9108958091BF02AA
:10073000882319F081E08093430508951F93CF9398
:10074000DF931F92CDB7DEB780910F059091100512
:1007500001969093100580930F058FB78983F894C5
:1007600019818091BE028F3FE9F190E0FC01EE0F0C
:10077000FF1F9C01220F331F220F331F220F331F35
:10078000E20FF31FEF5EFA4F218521112BC0FC0110
:10079000EE0FFF1F880F991F880F991F880F991F51
:1007A000E80FF91FEF5EFA4F80819181A281B3813A
:1007B00020910F05309110052A173B0799F43EDD73
:1007C0008091BE0290E0FC01EE0FFF1F880F991F81
:1007D000880F991F880F991FE80FF91FEF5EFA4FD6
:1007E00081E081871FBF0F90DF91CF911F91089506
:1007F0000F931F93CF93DF93C82F8F3F09F460C0EF
:1008000000910F0510911005D6DC40910F05509115
:10081000100504171507A1F7D0E060E070E0FE01B5
:10082000EE0FFF1F9E01220F331F220F331F220FD7
:10083000331FE20FF31FEF5EFA4FBA01552744272B
:10084000A0E0B0E0482B592B6A2B7B2B8081918153
:10085000A281B381841B950BA60BB70B8F3F2FEFA3
:100860009207A2072FE7B20738F59E01220F331F28
:10087000220F331F220F331FFE01EE0FFF1FE20F67
:10088000F31FEF5EFA4F218521111BC0009721E075
:10089000A207B105B0F4D2DCCE01880F991FCC0FAE
:1008A000DD1FCC0FDD1FCC0FDD1FC80FD91FCF5EA2
:1008B000DA4F81E0898705C081E08093430501C05C
:1008C000A2DCDF91CF911F910F9108958091430594
:1008D000882309F457C0109243058091BF028823F2
:1008E00009F450C08091BD028F3F59F48091BC0241
:1008F0008F3F39F48091BE028093BC028093BD0289
:1009000015C02091BE028091BC0290E0FC01EE0F68
:10091000FF1F880F991F880F991F880F991FE80FD5
:10092000F91FEF5EFA4F20872093BC028091BE0230
:1009300090E0FC01EE0FFF1F880F991F880F991F91
:10094000880F991FE80FF91FEF5EFA4F808580939B
:10095000BE022091BC0230E0F901EE0FFF1F220F12
:10096000331F220F331F220F331FE20FF31FEF5EDF
:10097000FA4F9FEF90879091BF0291509093BF02E2
:10098000911136CF08951092BF0210924305109234
:10099000100510920F058FEF8093BE028093BD0269
:1009A0008093BC02E1E1F5E023E435E08087158225
:1009B00014823A96E217F307C9F71092BB028EE948
:1009C00093E0FADC86E993E0FCDCADCC08950F936C
:1009D0001F93CF93DF931F921F92CDB7DEB78FB7D0
:1009E0008A83F8941A8172DF1FBF1FEF012F37C06F
:1009F0008FB78983F89429818091BD0290E0DC0152
:100A0000AA0FBB1F880F991F880F991F880F991F66
:100A1000A80FB91FAF5EBA4F18969C9118971496FD
:100A2000ED91FC91159716964D915C91179718963C
:100A30001C93189715961C921E92149717961C9249
:100A40001E92169719961C929093BD029F3F11F427
:100A50000093BC022FBF309711F0CA011995809105
:100A6000BD028F3F29F60F900F90DF91CF911F911C
:100A70000F91089580E00895AACF0895CF93DF9352
:100A800080EC92E0B0D0C5ECD2E081ED92E09983A9
:100A90008883BE0180EC92E0ADD08CE593E09D832D
:100AA0008C8369EC72E080EC92E0A4D087EE93E056
:100AB000998788876DEC72E080EC92E09BD0DF91A3
:100AC000CF91089560E070E080EC92E0B8C00895A6
:100AD000009721F0BC0180EC92E08CC008958F92C9
:100AE0009F92AF92BF92CF92DF92EF92FF920F93BD
:100AF0001F93CF93DF931F92CDB7DEB72FB7298314
:100B0000F8948980DC0114962C91222309F456C0B4
:100B10007A01962E5C01FC0100811181452BE1F0E8
:100B20000115110509F44DC0680101C08901D70103
:100B300012966D917C911397ED91FC91D8018D9156
:100B40009C911995811109C0F801228133816801B6
:100B50002115310559F735C068010115110599F1C5
:100B6000911031C0D5018D919C91119708171907EB
:100B700031F4F801828193818D939C9308C0D80150
:100B800012968D919C911397F60193838283D501E0
:100B900012968D919C9113970817190721F41396BB
:100BA000DC92CE921297F5018481815084838081FA
:100BB0009181892B41F41382128205C000E010E07C
:100BC00002C000E010E08FBEC8010F90DF91CF910E
:100BD0001F910F91FF90EF90DF90CF90BF90AF905B
:100BE0009F908F900895FC011182108213821282CF
:100BF00014820895CF93DF931F92CDB7DEB7FC0127
:100C00008FB78983F89499818481811103C071839E
:100C1000608306C0A281B38113967C936E93129772
:100C200073836283DB0113961C921E921297848158
:100C30008F5F84839FBF0F90DF91CF910895AB01A9
:100C400060E04DCF089504C0615071098109910998
:100C50006115710581059105B9F708950F931F93EB
:100C6000CF93809141018F718830A1F481E080930E
:100C70004F0189E080934201C3E00FE411E0F801E5
:100C8000808180FD07C063E970E080E090E0DBDFF9
:100C9000C150A9F7CF911F910F9108951F93CF9342
:100CA000DF931F92CDB7DEB7182F80916B058F3081
:100CB00051F51F3009F438C110926F0583E89AE0AE
:100CC000E1D28FB78983F89499817894E9E3F1E0D0
:100CD00080818D7F808380916F058823E1F39FBFA2
:100CE0008FEF80934F0188E480934E01EDE4F1E0B3
:100CF000808184608083183011F0133021F488E003
:100D000080936B0511C1812F90E0FC013397E7318F
:100D1000F10508F05AC08827E656FF4F8F4F0C9414
:100D20009E1383E080934201EDE4F1E080818B7FAC
:100D300080830E941E1480936D01EEE6F1E08081B5
:100D40009770887F892B80838FEF80934F0180E895
:100D500080934E0162E070E080E090E074DFE9E3B0
:100D6000F1E08081826080836FE270E080E090E05B
:100D70006ADF8FE080936B05D7C080916B05883068
:100D800021F188E08093420162E070E080E090E031
:100D90005ADF1BC080916B058830B9F083E08093E7
:100DA000420162E070E080E090E04DDF0EC0809193
:100DB0006B05883049F018F4863039F409C0863163
:100DC00039F0893111F404C049DFE1E4F1E0A6C053
:100DD00089E08093420162E070E080E090E033DFE0
:100DE000F4CF80916B05883019F0893071F302C01F
:100DF00035DFEBCF84E080934201E7CF80916B0534
:100E0000893041F018F4883071F0DFCF863111F06D
:100E10008931D9F686E08093420162E070E080E09B
:100E200090E011DFD2CF1ADF86E08093420162E0CA
:100E300070E080E090E007DFC8CF80916B058830DC
:100E400091F018F48630C9F0C0CF893019F089319B
:100E500009F0BBCF86E18093420162E070E080E060
:100E600090E0F1DEB2CFFADE86E18093420162E0EB
:100E700070E080E090E0E7DEA8CF89E08093420157
:100E800062E070E080E090E0DEDE809141018F71F1
:100E900080936B05893009F047C086E18093420159
:100EA00062E070E080E090E0CEDE8FCF80916B0555
:100EB000883051F118F4863079F087CF893019F0F5
:100EC000863151F082CF89E18093420162E070E087
:100ED00080E090E0B8DE79CF89E08093420162E063
:100EE00070E080E090E0AFDE809141018F718093EF
:100EF0006B058930C9F489E18093420162E070E0BA
:100F000080E090E0A0DE61CFA9DE89E1809342011C
:100F100062E070E080E090E096DE57CF80818F71D4
:100F200080936B058F31D1F30F90DF91CF911F919B
:100F30000895CF93DF9380914405882319F1809120
:100F4000700581111FC08091720490917304892BE8
:100F500041F48BE8B7DD9093730480937204892B7E
:100F600089F010924405CCE4D1E088818F778883A2
:100F700063E070E080E090E066DE888180688883CE
:100F800086E18CDE80914905882341F060E070E0C5
:100F900085E495E054DE009709F024D58091700532
:100FA000823009F485D5DF91CF91089504C0615056
:100FB0007109810991096115710581059105B9F7DB
:100FC0000895FF920F931F93CF93DF9386E066DE21
:100FD0008630E1F7E5E5F1E080818F77808310923C
:100FE0004E016894FF24F3F8C0E0D0E006E411E07D
:100FF000F8019081CC0FDD1FCC0FDD1F9076292FDB
:1010000030E036952795329522952F7023273F7033
:101010002327C22BD32B62E070E080E090E0C6DF94
:10102000FA94F110E5CF83E039DE8FEF80934F0122
:1010300088E480934E01CE010E942114DF91CF916C
:101040001F910F91FF900895FF920F931F93CF93DD
:10105000DF93F82EC9E3D1E088818D7F888361E436
:1010600071E080E090E0A2DF88818E7F888362E07B
:1010700070E080E090E09ADF88818160888366E894
:1010800070E080E090E092DF809141018F71CAE0D2
:1010900001E411E00AC066E870E080E090E086DFDD
:1010A000F80180818F71C150C9F18830A1F7809318
:1010B0006B0587DF0E941E1480936D01EEE6F1E060
:1010C00080819770887F892B808380818062808374
:1010D000ECE4F1E080818068808388E480934E01B5
:1010E0008FEF80935601EDE4F1E080818C7F826088
:1010F0008083AAE4B1E08C91807F83608C938081AF
:1011000088608083808184608083F11030D27DD2BA
:10111000109270051092440580E001C085E8DF91CF
:10112000CF911F910F91FF900895CF92DF92EF9290
:10113000FF920F931F93CF93DF9314BE80E18093B0
:10114000350180933401809333018093320192DC26
:1011500081116DC060E481E0BADAC9E3D1E0888131
:101160008160888388818D7F88836BEF71E080E068
:1011700090E01CDF88818E7F888362E070E080E0F1
:1011800090E014DF88818160888366E870E080E009
:1011900090E00CDF809141018F71CAE001E411E021
:1011A0000BC066E870E080E090E000DFF80180812D
:1011B0008F71C15009F451C0883099F780936B0545
:1011C00080915C01843909F048C035C00E941E142A
:1011D000F80181938F01EC15FD05C1F7F70120811E
:1011E0003181428153816481758186819781AFEF1E
:1011F0000E94BF13ADEF0E94CB1321F018F00CE456
:1012000015E0E4CF81E69AE038D082E79AE030D06A
:1012100083E89AE037D032DC8BE854DC9093730497
:101220008093720485E495E0DEDCCBD517C0C5E879
:1012300015C0C5E813C081E007DFC82F8111F9CFC1
:101240000F2EFCE4EF2EF5E0FF2EF02D0F2EF4E52F
:10125000CF2EF5E0DF2EF02DC1CFC5E88C2FDF912A
:10126000CF911F910F91FF90EF90DF90CF90089555
:1012700090937B0480937A040895909379048093EB
:1012800078040895909375048093740408951F92D0
:101290000F920FB60F9211240BB60F922F933F931C
:1012A0004F935F936F937F938F939F93AF93BF936E
:1012B000EF93FF93E0917A04F0917B041995FF91ED
:1012C000EF91BF91AF919F918F917F916F915F91BE
:1012D0004F913F912F910F900BBE0F900FBE0F902B
:1012E0001F9018951F920F920FB60F9211240BB6F4
:1012F0000F922F933F934F935F936F937F938F93AF
:101300009F93AF93BF93EF93FF93E0917804F09195
:1013100079041995FF91EF91BF91AF919F918F91B2
:101320007F916F915F914F913F912F910F900BBEE5
:101330000F900FBE0F901F9018951F920F920FB62F
:101340000F9211240BB60F922F933F934F935F93FD
:101350006F937F938F939F93AF93BF93EF93FF937D
:10136000E0917604F09177041995FF91EF91BF9188
:10137000AF919F918F917F916F915F914F913F912D
:101380002F910F900BBE0F900FBE0F901F901895CE
:101390001F920F920FB60F9211240BB60F922F933C
:1013A0003F934F935F936F937F938F939F93AF93ED
:1013B000BF93EF93FF93E0917404F0917504199536
:1013C000FF91EF91BF91AF919F918F917F916F911D
:1013D0005F914F913F912F910F900BBE0F900FBED9
:1013E0000F901F9018951F920F920FB60F92112415
:1013F0000F900FBE0F901F9018951F920F920FB66F
:101400000F9211240F900FBE0F901F9018951F92EE
:101410000F920FB60F9211240F900FBE0F901F90D6
:1014200018951F920F920FB60F9211240F900FBEB6
:101430000F901F9018951F920F920FB60F921124C4
:101440000F900FBE0F901F9018951F920F920FB61E
:101450000F9211240F900FBE0F901F9018951F929E
:101460000F920FB60F9211240F900FBE0F901F9086
:1014700018951F920F920FB60F9211240F900FBE66
:101480000F901F9018951F920F920FB60F92112474
:101490000F900FBE0F901F9018951F920F920FB6CE
:1014A0000F9211240F900FBE0F901F9018951F924E
:1014B0000F920FB60F9211240F900FBE0F901F9036
:1014C00018951F93CF93DF931F92CDB7DEB78FB7D9
:1014D0008983F894198119D21FBF0F90DF91CF91A2
:1014E0001F9108951F93CF93DF931F92CDB7DEB75F
:1014F0008FB78983F8941981A6D31FBF0F90DF910E
:10150000CF911F91089581E080936F05089585FD27
:1015100003C0982F9F7304C0982F91959F71919548
:10152000E2E6F1E02491291754F48491803EB4F06E
:101530008032B4F48823CCF48F71806216C0E1E766
:10154000F1E0249192178CF48491803E5CF080321B
:101550005CF4882354F48F71806207C080E205C078
:101560008FE103C080E201C08FE180680895CF93CE
:10157000DF93CCE4D5E084E08C8B83E08D8B2FEF80
:101580003FEF3F872E873D872C879BE09B8B188EF4
:1015900040E058EF6FEF77E0488759876A877B878D
:1015A0002AE031E0398B288B9AE0998F92E09A8F6C
:1015B00095E09B8F8C8F84E8AADF8F8B81E08A8BEC
:1015C0001E8ADF91CF91089585FD02C08F7303C0FD
:1015D00081958F718195E2E6F1E0949189173CF451
:1015E000E3E6F1E021E0949189173CF001C020E0AE
:1015F00098174CF48FEF820F08952F5F31962031AA
:1016000091F780E00895822F0895CF93DF93ECE463
:10161000F5E0868580936201878580936301E4E627
:10162000F1E0ACE4B5E08D918193EC3631E0F30765
:10163000D1F7ECE4F5E084858093600185858093A3
:10164000610148E451E0DA018C912289B0E22B9FDC
:101650009001112420768F79822BDA018C93CFE6CA
:10166000D1E0888195899F70807F892B88832EE6C1
:1016700031E0D9018C919689990F990F990F987043
:10168000877F892B8C932881938DB0E19B9FC0012C
:101690001124922F9F70892B8883DA018C91938972
:1016A0009F71807E892B8C9387898EDFE5E4F1E042
:1016B0009081907F8F70892B8083DF91CF910895E7
:1016C000CF93DF938E3441F0893561F4FB01808143
:1016D0008093680580E00BC1FB01808180936005E9
:1016E00080E005C190916B059F3009F4DCC08B3020
:1016F00009F4C9C080F4EB01823009F484C020F4FD
:10170000882309F446C0D1C0833009F48CC08430EA
:1017100009F45AC0CAC0833579F128F48F3451F0E6
:101720008035E9F0C2C0873509F456C0803F09F41E
:101730008BC0BBC0FB018081ECE4F5E0858B938D11
:10174000981710F490936105EFE6F1E08081909195
:1017500061059F70807F892B808380E0C8C0FB017A
:1017600090818181ECE4F5E0968787879093620110
:101770008093630180E0BBC0FB0190818181ECE438
:10178000F5E094878587909360018093610180E004
:10179000AEC08091700581118AC0888140E058EF09
:1017A0006FEF77E0082E04C07695679557954795BB
:1017B0000A94D2F740FF7DC0983009F480C088E0D9
:1017C0006DDA8830E1F786C080917005811173C0B1
:1017D0008881811172C08BC0FB019081ECE4F5E03F
:1017E000938F8589981710F490936105EFE6F1E0E7
:1017F0008081282F2F7030E1939FC0011124822B0C
:10180000808380E074C08881CCE4D5E08F8B7FDE5C
:101810008F8BDADEE5E4F1E09081907F8F70892B89
:10182000808380E064C0888180935E05E8E4F1E015
:10183000208130E2839FC00111248076922F9F790E
:10184000892B808380E053C0FB01B081A18152814C
:1018500043813481258196818781ECE4F5E0B08372
:10186000A183528343833483258396838783E4E66D
:10187000F1E0ACE4B5E08D918193EC3631E0F30713
:10188000D1F780E034C0FB01808180936205EEE6F1
:10189000F1E09081880F880F880F8870977F892BDF
:1018A000808380E024C081E822C084EF20C086E8E5
:1018B0001EC088EE1CC086E81AC088EE18C080934F
:1018C0005F05E8E4F1E09081907E8F71892B808341
:1018D00080E00DC0888180935F05E8E4F1E09081AD
:1018E000907E8F71892B808386E1D8D980E0DF914B
:1018F000CF91089504C06150710981099109611562
:10190000710581059105B9F70895CF92DF92EF92A5
:10191000FF920F931F93CF93DF93E0917204F091A6
:101920007304309771F4CCE4D1E088818F77888399
:1019300063E070E080E090E0DDDF8881806888838C
:1019400048C00091470110917B0111230CF441C064
:10195000E080F18082E0810FEBE8F0E0E81BF10924
:10196000E701CE0FDF1FC12ED12CA6014F5F5F4FC5
:1019700060E871E0CE0170D7FE011293D70118968E
:10198000FC93EE931797EC0DFD1D0283609172049A
:101990007091730485E495E02DD98BE893D89093EA
:1019A000730480937204892B21F481E080934405B1
:1019B0000DC0CCE4D1E088818F77888363E070E04C
:1019C00080E090E097DF88818068888380E480935E
:1019D0004F01DF91CF911F910F91FF90EF90DF901A
:1019E000CF900895CF93DF93AC01FC01C081D181EA
:1019F000AF81B8858C9180936C05E82FF0E031962B
:101A0000EA0FFB1F808131813D3320F4311103C087
:101A100031E001C03CE382958695869583702FEF77
:101A2000829FC0011124389FB001399F700D11248D
:101A30009B01A3E8BDE28AD69695879592958295FB
:101A40008F7089279F7089278F3F910511F008F0CB
:101A50008FEF80835A834983CE012ED6DF91CF91B9
:101A6000089590917005911116C0883029F416D907
:101A70001092440588E00895809172049091730457
:101A8000892B21F086E10AD986E0089581E08093D0
:101A9000440586E0089586E8089504C06150710900
:101AA000810991096115710581059105B9F70895BD
:101AB0001092700580917C04833069F028F48823AB
:101AC00091F0813031F00DC0853039F0873039F038
:101AD00008C087E809C081EE07C089EE05C085E827
:101AE00003C085E801C080E060914A0570914B0514
:101AF000E0C508951F93CF93DF931F92CDB7DEB754
:101B0000182F662381F0ECE6F1E0208190916805C2
:101B100030E1939FC0011124922F9F70892B808305
:101B20001230E0F408C0ECE6F1E080818F70808331
:101B30001230A0F40DC0ECE6F1E0808190916005D8
:101B4000990F9E70817F892B808310926F011AC03C
:101B5000ECE6F1E080818E60808314C0ECE4F5E077
:101B6000838D20E1829FC00111249589892B809368
:101B70006F01ACE6B1E08C919489990F9E70817FE2
:101B8000892B8C9389E18AD88931E1F71130A1F44E
:101B900080916C05833140F061E073E080E090E07B
:101BA0007CDF10926C050DC06BEA70E080E090E085
:101BB00074DF10926C0505C06CE070E080E090E08E
:101BC0006CDF8FB78983F8941981E9E3F1E08081B4
:101BD000826080830000000080818D7F808360911F
:101BE0006D0570916E05FB01408150E04150510937
:101BF00080E891E031D681E0809370051FBF0F909F
:101C0000DF91CF911F910895FC0190917005911182
:101C100016C0F0934B05E0934A050780F085E02D50
:101C2000F0936E05E0936D058081815080936C0583
:101C3000EF2B39F0862F642F5DDF80E0089586E872
:101C4000089588EE0895809170058130C1F48091E7
:101C5000420182958695877080937C0482E0809310
:101C600070058091720490917304892B31F489E09E
:101C700015D881E080934405089586E10FC8089542
:101C8000882329F1EDE4F1E080818C7F80838081DD
:101C900088608083AAE4B1E08C91807F83608C931C
:101CA0008081846080838081837009F054C080913A
:101CB0004D0183FF52C080914D0182FF50C0809141
:101CC0004A018F70833009F04CC080E00895EDE444
:101CD000F1E08081877F8083AAE4B1E08C91807FEE
:101CE00087608C93808184608083613031F480814F
:101CF0008C7F8160808385E817C0623041F4EDE419
:101D0000F1E080818C7F8260808385E80DC066234E
:101D100011F0633041F4EDE4F1E080818C7F808349
:101D200085E860E001C088EE20914D01237030E02D
:101D300070E026173707B9F490914D0193FD15C057
:101D400090914D0192FD13C090914A019F70933084
:101D500079F480E0089585E8089585E8089585E898
:101D6000089585E8089585E8089585E8089585E84B
:101D70000895811124C0FB018081803D2CF08FECFF
:101D800080937D046FE012C0873A2CF486EA80933A
:101D90007D0460E00BC080937D04082E000C990B3D
:101DA000865A9F4F63E070E0B6D46F5FE5E5F1E0DF
:101DB0008081807F6F70682B608380E0089584EF5E
:101DC000089586EA80937D046DE774E080E0D1DFBA
:101DD00061E080E00E94670360E180E00E946703A9
:101DE00080E008950C949A0108950C94D20108950E
:101DF00080918400909185000895EFE6F0E0808165
:101E00008D7F8083B19A0895B19AEFE6F0E08081EA
:101E1000826080830895EFE6F0E0808181608083B6
:101E2000B09A089580E890E082C30895E9E8F0E070
:101E30002081922B9083E8E8F0E09081892B8083C9
:101E40000895CF93DF931F92CDB7DEB78FB7898305
:101E5000F89489810F90DF91CF9108958FBF0895F5
:101E6000CF93DF9380E890E0EBD262EF7EE080E8F2
:101E700090E0D4D3CFE6D0E088818160888365EF9D
:101E80007EE080E890E0EAD388818D7F8883E1E876
:101E9000F0E080818160808388E0DF91CF910895B8
:101EA0001F920F920FB60F9211240BB60F922F9321
:101EB0003F934F935F936F937F938F939F93AF93D2
:101EC000BF93EF93FF93E0919C04F0919D043097B2
:101ED00009F01995FF91EF91BF91AF919F918F916B
:101EE0007F916F915F914F913F912F910F900BBE1A
:101EF0000F900FBE0F901F9018951F920F920FB664
:101F00000F9211240BB60F922F933F934F935F9331
:101F10006F937F938F939F93AF93BF93EF93FF93B1
:101F2000E0919A04F0919B04309709F01995FF9184
:101F3000EF91BF91AF919F918F917F916F915F9141
:101F40004F913F912F910F900BBE0F900FBE0F90AE
:101F50001F9018951F920F920FB60F9211240BB677
:101F60000F922F933F934F935F936F937F938F9332
:101F70009F93AF93BF93EF93FF93E0919804F091F9
:101F80009904309709F01995FF91EF91BF91AF91A6
:101F90009F918F917F916F915F914F913F912F9181
:101FA0000F900BBE0F900FBE0F901F9018951F92B1
:101FB0000F920FB60F9211240BB60F922F933F93EF
:101FC0004F935F936F937F938F939F93AF93BF9341
:101FD000EF93FF93E0919604F0919704309709F006
:101FE0001995FF91EF91BF91AF919F918F917F9143
:101FF0006F915F914F913F912F910F900BBE0F907A
:102000000FBE0F901F9018951F920F920FB60F9250
:1020100011240BB60F922F933F934F935F936F93BF
:102020007F938F939F93AF93BF93EF93FF93E09131
:102030009404F0919504309709F01995FF91EF9170
:10204000BF91AF919F918F917F916F915F914F91D0
:102050003F912F910F900BBE0F900FBE0F901F90CE
:1020600018951F920F920FB60F9211240BB60F9274
:102070002F933F934F935F936F937F938F939F9390
:10208000AF93BF93EF93FF93E0919204F091930489
:10209000309709F01995FF91EF91BF91AF919F9102
:1020A0008F917F916F915F914F913F912F910F9001
:1020B0000BBE0F900FBE0F901F9018951F920F929E
:1020C0000FB60F9211240BB60F922F933F934F939D
:1020D0005F936F937F938F939F93AF93BF93EF9390
:1020E000FF93E0919004F0919104309709F01995D5
:1020F000FF91EF91BF91AF919F918F917F916F91E0
:102100005F914F913F912F910F900BBE0F900FBE9B
:102110000F901F9018951F920F920FB60F921124D7
:102120000BB60F922F933F934F935F936F937F93D1
:102130008F939F93AF93BF93EF93FF93E0918E04A0
:10214000F0918F04309709F01995FF91EF91BF91AD
:10215000AF919F918F917F916F915F914F913F913F
:102160002F910F900BBE0F900FBE0F901F901895E0
:102170001F920F920FB60F9211240BB60F922F934E
:102180003F934F935F936F937F938F939F93AF93FF
:10219000BF93EF93FF93E0918C04F0918D043097FF
:1021A00009F01995FF91EF91BF91AF919F918F9198
:1021B0007F916F915F914F913F912F910F900BBE47
:1021C0000F900FBE0F901F9018951F920F920FB691
:1021D0000F9211240BB60F922F933F934F935F935F
:1021E0006F937F938F939F93AF93BF93EF93FF93DF
:1021F000E0918A04F0918B04309709F01995FF91D2
:10220000EF91BF91AF919F918F917F916F915F916E
:102210004F913F912F910F900BBE0F900FBE0F90DB
:102220001F9018951F920F920FB60F9211240BB6A4
:102230000F922F933F934F935F936F937F938F935F
:102240009F93AF93BF93EF93FF93E0918804F09136
:102250008904309709F01995FF91EF91BF91AF91E3
:102260009F918F917F916F915F914F913F912F91AE
:102270000F900BBE0F900FBE0F901F9018951F92DE
:102280000F920FB60F9211240BB60F922F933F931C
:102290004F935F936F937F938F939F93AF93BF936E
:1022A000EF93FF93E0918604F0918704309709F053
:1022B0001995FF91EF91BF91AF919F918F917F9170
:1022C0006F915F914F913F912F910F900BBE0F90A7
:1022D0000FBE0F901F9018951F920F920FB60F927E
:1022E00011240BB60F922F933F934F935F936F93ED
:1022F0007F938F939F93AF93BF93EF93FF93E0915F
:102300008404F0918504309709F01995FF91EF91BD
:10231000BF91AF919F918F917F916F915F914F91FD
:102320003F912F910F900BBE0F900FBE0F901F90FB
:1023300018951F920F920FB60F9211240BB60F92A1
:102340002F933F934F935F936F937F938F939F93BD
:10235000AF93BF93EF93FF93E0918204F0918304D6
:10236000309709F01995FF91EF91BF91AF919F912F
:102370008F917F916F915F914F913F912F910F902E
:102380000BBE0F900FBE0F901F9018951F920F92CB
:102390000FB60F9211240BB60F922F933F934F93CA
:1023A0005F936F937F938F939F93AF93BF93EF93BD
:1023B000FF93E0918004F0918104309709F0199522
:1023C000FF91EF91BF91AF919F918F917F916F910D
:1023D0005F914F913F912F910F900BBE0F900FBEC9
:1023E0000F901F9018951F920F920FB60F92112405
:1023F0000BB60F922F933F934F935F936F937F93FF
:102400008F939F93AF93BF93EF93FF93E0917E04DD
:10241000F0917F04309709F01995FF91EF91BF91EA
:10242000AF919F918F917F916F915F914F913F916C
:102430002F910F900BBE0F900FBE0F901F9018950D
:102440001F93CF93DF931F92CDB7DEB72FB72983AA
:10245000F8941981009709F464C08837910549F40C
:1024600061E080E00E94670360E180E00E94670312
:1024700058C0803C910529F462E080E00E94670327
:1024800050C08C34910529F464E080E00E94670319
:1024900048C08038910529F468E080E00E94670315
:1024A00040C08434910529F460E280E00E94670313
:1024B00038C0803B910529F460E480E00E94670306
:1024C00030C0883B910529F460E880E00E946703F2
:1024D00028C0883C910529F461E081E00E946703EF
:1024E00020C08039910529F468E081E00E946703EB
:1024F00018C0803A910529F460E181E00E946703E9
:1025000010C0803221E0920729F460E281E00E944D
:10251000670307C08334914021F460E481E00E94A6
:1025200067031FBF0F90DF91CF911F9108951F93F5
:10253000CF93DF931F92CDB7DEB72FB72983F894DF
:102540001981009709F464C08837910549F461E066
:1025500080E00E947F0360E180E00E947F0358C01A
:10256000803C910529F462E080E00E947F0350C026
:102570008C34910529F464E080E00E947F0348C018
:102580008038910529F468E080E00E947F0340C014
:102590008434910529F460E280E00E947F0338C012
:1025A000803B910529F460E480E00E947F0330C005
:1025B000883B910529F460E880E00E947F0328C0F1
:1025C000883C910529F461E081E00E947F0320C0EE
:1025D0008039910529F468E081E00E947F0318C0EA
:1025E000803A910529F460E181E00E947F0310C0E8
:1025F000803221E0920729F460E281E00E947F03AB
:1026000007C08334914021F460E481E00E947F039D
:102610001FBF0F90DF91CF911F91089580389105D2
:1026200029F470939D0460939C040895803991056A
:1026300029F470939504609394040895803A910569
:1026400029F470938D0460938C0408958032914036
:1026500021F4709385046093840408958038910573
:1026600029F470939B0460939A040895803991052E
:1026700029F470939304609392040895803A91052D
:1026800029F470938B0460938A04089580329140FA
:1026900021F4709383046093820408950E940C03D4
:1026A0000E944B030E943C050E9499070E94F10181
:1026B000F9CF0C9432020895CF93DF93EC010E947E
:1026C000080289819A810E946805DF91CF9108955F
:1026D000DB018F939F9349D0BF91AF91A29F800D53
:1026E000911DA39F900DB29F900D11240895AA1BD8
:1026F000BB1B51E107C0AA1FBB1FA617B70710F0ED
:10270000A61BB70B881F991F5A95A9F7809590951E
:10271000BC01CD01089597FB072E16F4009406D056
:1027200077FD08D0E4DF07FC05D03EF49095819555
:102730009F4F0895709561957F4F0895EE0FFF1F8D
:10274000881F8BBF0790F691E02D1994A29FB001CE
:10275000B39FC001A39F700D811D1124911DB29FD5
:10276000700D811D1124911D0895F0DFA59F900D1E
:10277000B49F900DA49F800D911D112408950024F5
:10278000A7FD00942A0F301D401D501D601D701DB7
:10279000801D901D08950024A7FD00942A17300580
:1027A00040055005600570058005900508958F92DD
:1027B0009F92AF92BF92CF92DF92EF92FF92CF9310
:1027C000DF93EC01688179818A819B8161157105B4
:1027D0008105910521F464E279ED8BE597E02DE127
:1027E00033EF41E050E041D049015A019B01AC0177
:1027F000A7EAB1E4BADF6B017C01ACEEB4EFA5014E
:10280000940151D0DC01CB018C0D9D1DAE1DBF1D6F
:10281000B7FF03C00197A109B04888839983AA83B1
:10282000BB839F77DF91CF91FF90EF90DF90CF90A8
:10283000BF90AF909F908F900895B9CF80E092E0C5
:10284000B6CFA0E0B0E08093000290930102A09385
:102850000202B09303020895FB01DC0102C0019063
:102860000D9241505040D8F70895052E97FB16F46D
:1028700000940FD057FD05D01AD007FC02D046F4C3
:1028800008C050954095309521953F4F4F4F5F4F71
:10289000089590958095709561957F4F8F4F9F4FCC
:1028A0000895B7FF62CF61DF821B930B0895A1E209
:1028B0001A2EAA1BBB1BFD010DC0AA1FBB1FEE1FBA
:1028C000FF1FA217B307E407F50720F0A21BB30B05
:1028D000E40BF50B661F771F881F991F1A9469F781
:1028E00060957095809590959B01AC01BD01CF01DD
:0628F0000895F894FFCFEB
:1028F60001000000150201486F6C6120736F79209A
:102906006E6F646F0054657374204D6573736167F1
:0229160065005A
:00000001FF
