S015000074785F72785F61636B284243292E7372656376
S1130000B8C00000D7C00000D5C00000D3C00000B5
S1130010D1C00000CFC00000CDC00000CBC00000A4
S1130020C9C00000C7C00000C5C00000C3C00000B4
S1130030C1C00000BFC00000BDC00000BBC00000C4
S1130040B9C000000C948F0F0C94BC0F0C94E90FF2
S11300500C94620FAFC00000ADC00000ABC0000044
S1130060A9C00000A7C00000A5C00000A3C00000F4
S1130070A1C000009FC000009DC000009BC0000004
S11300800C9443100C9470100C949D100C94161046
S113009091C000008FC000008DC000008BC0000024
S11300A089C0000087C000000C94F7100C94241140
S11300B00C9451110C94CA107DC000000C94AB1127
S11300C00C94D8110C9405120C947E1173C000008A
S11300D071C000006FC000006DC000006BC0000064
S11300E069C000000C940F0A0C94190A0C94050AB8
S11300F00C9484090C94AF090C94230A0C945909A8
S11301000C94DA0957C0000055C0000053C0000029
S113011051C000004FC000000C94370A0C942D0A03
S11301200C94410A0C944B0A0C94550A0C945F0AE3
S11301300C94690ADC060307F7061007F706CF06D6
S1130140E906F706F706F706F706F706A306F70625
S1130150F706F706F706F706F7062F07F706F7067A
S1130160680704030302020100FFFEFDFCFBF9F72C
S1130170F4EF11241FBECFEFD1E8DEBFCDBF00E006
S11301800CBF12E0A0E0B2E0EAE1F9E200E00BBF4C
S113019002C007900D92A431B107D9F725E0A4E17C
S11301A0B2E001C01D92AC37B207E1F70E946013C0
S11301B00C948B1425CF0E940A0F2091180222233D
S11301C0D9F040917B0530E020911802642F732F01
S11301D00E948913FB018FEF9FEF642F732F0E94FE
S11301E0891330E0629FC001639F900D729F900D50
S11301F011248E0F9F1F089560917B0570E00E946B
S11302008913CB0108950E940F0F0E94330F10929F
S113021014021092150210921602109217021092F4
S11302201A02109219020C94400F0E941D0F109292
S113023018020895E8DFF9DF0C94240F0F931F933D
S1130240CF93DF93EC010E940A0F8C01BE0180E082
S113025090E020917B0530E040E050E00E947A136A
S1130260DC01CB01A80160E070E0480F591F6A1F50
S11302707B1F4093140250931502609316027093EF
S11302801702409114025091150260911602709168
S11302901702AB0166277727409314025093150287
S11302A06093160270931702409114025091150244
S11302B0609116027091170241155105610571058F
S11302C091F04091140250911502609116027091C0
S11302D017020196080F191F10931A0200931902AE
S11302E00E940F0F08C0080F191F10931A020093E1
S11302F019020E94160F8091190290911A028436F5
S1130300910530F48C599F4F90931A0280931902EF
S11303108091190290911A020E94280FDF91CF91C7
S11303201F910F910895109218020E94420F80931A
S11303307B0508958091140290911502A0911602F4
S1130340B09117020097A105B105C9F0809114027C
S113035090911502A0911602B09117020197A1097C
S1130360B1098093140290931502A0931602B093DE
S113037017020097A105B10511F40E94160F809190
S113038018028F5F8093180290917B05891748F0BB
S113039010921802E0911B02F0911C02309709F0B0
S11303A0199508950E940F0FE0911D02F0911E020D
S11303B0309709F01995089590931C0280931B02BD
S11303C0089590931E0280931D02089504C0615005
S11303D07109810991096115710581059105B9F7C3
S11303E0089580910602882319F180911F0290914B
S11303F020020A97E4F4A2988091040290910502E5
S1130400FC0101900020E9F73197BF01681B790BCB
S1130410DBD066E578E584E190E0D8DF80911F02C7
S11304209091200201969093200280931F02A29A39
S11304300895CF93DF93209121022223F9F0EC0158
S113044066E578E584E190E0C1DF85E8E4E9F4E07D
S1130450DF011D928A95E9F7EF81F88585E8A4E923
S1130460B4E001900D928A95E1F789819A8142D393
S11304708EE994E09093930480939204DF91CF915A
S1130480089508954F925F926F927F928F92AF92E8
S1130490CF92EF920F931F93CF93DF93CDB7DEB735
S11304A0A9E8B0E0AE19B109FD01EC5DFD4F3F01D3
S11304B0EE2079F0D80144244A944E0C512C9FEF3D
S11304C0491A590A040D151D9D919193A017B1075E
S11304D0D9F7423061F43BE03E0DD301409162050F
S11304E0509163055E934E9340E050E826C0D301DB
S11304F0189731E13E0DE6E5F5E090819C939181FA
S113050011969C931197928112969C9312979381C2
S113051013969C931397948114969C9314979581A6
S113052015969C931597968116969C93169797818A
S113053017969C93179740E050EC823059F4FB01D6
S113054080819181FD01929382933F01CA0180646D
S113055098600FC03D01F8E06F1A71083A5F88E0B7
S1130560FB01D30101900D928A95E1F7CA018064E1
S11305709C604EEF5AECF3013297518340833197DC
S11305802083C11002C0816001C08162F3013597EC
S113059091838083D30116973C93B0932C02A0934C
S11305A02B02482D6A2D84E292E00E94160EDF9100
S11305B0CF911F910F91EF90CF90AF908F907F903C
S11305C06F905F904F9008958F92AF92CF92EF9279
S11305D00F931F93CF93DF931F921F92CDB7DEB774
S11305E021E03AEA3A8329832091220230912302BE
S11305F0A9014F5F5F4F5093230240932202812C45
S11306006894AA24A1F8CC24C394E62E8C0142E079
S1130610BE016F5F7F4F82E035DF0F900F90DF9157
S1130620CF911F910F91EF90CF90AF908F9008953D
S113063086E00C94430D0895CF93DF9300D000D04F
S1130640CDB7DEB73BD036D0B0D181D58111FFCF45
S1130650789482E09AEA9A8389838EEF9AEC9C8359
S11306608B8382E18D831E82BE016F5F7F4F83E5A2
S11306700E94720BBE016D5F7F4F80E50E94720B7A
S1130680BE016B5F7F4F80E00E94720BBE016A5F08
S11306907F4F84E00E94720B62E080E00E94520E61
S11306A0C7DF26960FB6F894DEBF0FBECDBFDF912D
S11306B0CF910895A29A9A9A08950895CF93DF93BB
S11306C01F92CDB7DEB78FEF8093640080936500EF
S11306D08FB78983F89489815F9350E850936100C0
S11306E050E0509361005F918FBF0F90DF91CF91E5
S11306F00895CF93DF931F92CDB7DEB79FB7998349
S1130700F8949981823040F4E82FF0E0EC59FF4FDF
S113071060958081682360839FBF0F90DF91CF91A4
S11307200895CF93DF931F92CDB7DEB79FB7998318
S1130730F8949981823038F4E82FF0E0EC59FF4FB7
S11307408081682B60839FBF0F90DF91CF910895C4
S11307508091B302882319F081E080934D050895B8
S11307601F93CF93DF931F92CDB7DEB78091190506
S113077090911A05019690931A05809319058FB7E5
S11307808983F89419818091B2028F3FE9F190E056
S1130790FC01EE0FFF1F9C01220F331F220F331F9A
S11307A0220F331FE20FF31FE55EFA4F218521115B
S11307B02BC0FC01EE0FFF1F880F991F880F991F94
S11307C0880F991FE80FF91FE55EFA4F8081918128
S11307D0A281B3812091190530911A052A173B078C
S11307E099F42CDD8091B20290E0FC01EE0FFF1F22
S11307F0880F991F880F991F880F991FE80FF91FF9
S1130800E55EFA4F81E081871FBF0F90DF91CF91A2
S11308101F9108950F931F93CF93DF93C82F8F3F9A
S113082009F460C00091190510911A05C4DC4091C7
S1130830190550911A0504171507A1F7D0E060E0D7
S113084070E0FE01EE0FFF1F9E01220F331F220FE7
S1130850331F220F331FE20FF31FE55EFA4FBA0175
S113086055274427A0E0B0E0482B592B6A2B7B2B5B
S113087080819181A281B381841B950BA60BB70B58
S11308808F3F2FEF9207A2072FE7B20738F59E019B
S1130890220F331F220F331F220F331FFE01EE0FCF
S11308A0FF1FE20FF31FE55EFA4F218521111BC0E4
S11308B0009721E0A207B105B0F4C0DCCE01880F97
S11308C0991FCC0FDD1FCC0FDD1FCC0FDD1FC80F10
S11308D0D91FC55EDA4F81E0898705C081E0809326
S11308E04D0501C090DCDF91CF911F910F910895C8
S11308F080914D05882309F457C010924D058091CD
S1130900B302882309F450C08091B1028F3F59F497
S11309108091B0028F3F39F48091B2028093B0028B
S11309208093B10215C02091B2028091B00290E090
S1130930FC01EE0FFF1F880F991F880F991F880F66
S1130940991FE80FF91FE55EFA4F20872093B00244
S11309508091B20290E0FC01EE0FFF1F880F991FF7
S1130960880F991F880F991FE80FF91FE55EFA4F4A
S113097080858093B2022091B00230E0F901EE0F3D
S1130980FF1F220F331F220F331F220F331FE20FCB
S1130990F31FE55EFA4F9FEF90879091B302915059
S11309A09093B302911136CF08951092B30210922E
S11309B04D0510921A05109219058FEF8093B2021B
S11309C08093B1028093B002EBE1F5E02DE435E0D1
S11309D08087158214823A96E217F307C9F71092BA
S11309E0AF0280EB93E0E8DC88EA93E0EADC9BCC9E
S11309F008950F931F93CF93DF931F921F92CDB748
S1130A00DEB78FB78A83F8941A8172DF1FBF1FEF96
S1130A10012F37C08FB78983F89429818091B1025F
S1130A2090E0DC01AA0FBB1F880F991F880F991F44
S1130A30880F991FA80FB91FA55EBA4F18969C91ED
S1130A4018971496ED91FC91159716964D915C911B
S1130A50179718961C93189715961C921E92149724
S1130A6017961C921E92169719961C929093B10297
S1130A709F3F11F40093B0022FBF309711F0CA01C9
S1130A8019958091B1028F3F29F60F900F90DF9155
S1130A90CF911F910F91089580E00895AACF0895F2
S1130AA0CF93DF9384EB92E0B0D0C9EBD2E085EC36
S1130AB092E099838883BE0184EB92E0ADD080E517
S1130AC093E09D838C836DEB72E084EB92E0A4D081
S1130AD08BED93E09987888761EC72E084EB92E078
S1130AE09BD0DF91CF91089560E070E084EB92E0B9
S1130AF0B8C00895009721F0BC0184EB92E08CC04B
S1130B0008958F929F92AF92BF92CF92DF92EF920D
S1130B10FF920F931F93CF93DF931F92CDB7DEB74E
S1130B202FB72983F8948980DC0114962C91222311
S1130B3009F456C07A01962E5C01FC0100811181F2
S1130B40452BE1F00115110509F44DC0680101C000
S1130B508901D70112966D917C911397ED91FC91C7
S1130B60D8018D919C911995811109C0F8012281B8
S1130B70338168012115310559F735C06801011524
S1130B80110599F1911031C0D5018D919C91119766
S1130B900817190731F4F801828193818D939C938E
S1130BA008C0D80112968D919C911397F6019383F6
S1130BB08283D50112968D919C911397081719077A
S1130BC021F41396DC92CE921297F5018481815020
S1130BD0848380819181892B41F41382128205C020
S1130BE000E010E002C000E010E08FBEC8010F90EA
S1130BF0DF91CF911F910F91FF90EF90DF90CF90F5
S1130C00BF90AF909F908F900895FC011182108245
S1130C101382128214820895CF93DF931F92CDB76B
S1130C20DEB7FC018FB78983F8949981848181119F
S1130C3003C07183608306C0A281B38113967C9341
S1130C406E93129773836283DB0113961C921E9238
S1130C50129784818F5F84839FBF0F90DF91CF9120
S1130C600895AB0160E04DCF089504C0615071094F
S1130C70810991096115710581059105B9F70895F7
S1130C800F931F93CF93809141018F718830A1F40A
S1130C9081E080934F0189E080934201C3E00FE437
S1130CA011E0F801808180FD07C063E970E080E015
S1130CB090E0DBDFC150A9F7CF911F910F91089508
S1130CC01F93CF93DF931F92CDB7DEB7182F809178
S1130CD075058F3051F51F3009F438C1109279052C
S1130CE085E99AE0E1D28FB78983F8949981789461
S1130CF0E9E3F1E080818D7F808380917905882309
S1130D00E1F39FBF8FEF80934F0188E480934E01FE
S1130D10EDE4F1E0808184608083183011F01330B9
S1130D2021F488E08093750511C1812F90E0FC01C6
S1130D303397E731F10508F05AC08827E656FF4F8C
S1130D408F4F0C94B01383E080934201EDE4F1E003
S1130D5080818B7F80830E94301480936D01EEE646
S1130D60F1E080819770887F892B80838FEF809357
S1130D704F0180E880934E0162E070E080E090E0F3
S1130D8074DFE9E3F1E08081826080836FE270E0E8
S1130D9080E090E06ADF8FE080937505D7C0809192
S1130DA07505883021F188E08093420162E070E0AB
S1130DB080E090E05ADF1BC0809175058830B9F05F
S1130DC083E08093420162E070E080E090E04DDFD8
S1130DD00EC080917505883049F018F4863039F4D6
S1130DE009C0863139F0893111F404C049DFE1E4E6
S1130DF0F1E0A6C089E08093420162E070E080E007
S1130E0090E033DFF4CF80917505883019F0893094
S1130E1071F302C035DFEBCF84E080934201E7CF6A
S1130E2080917505893041F018F4883071F0DFCF76
S1130E30863111F08931D9F686E08093420162E06F
S1130E4070E080E090E011DFD2CF1ADF86E080937B
S1130E50420162E070E080E090E007DFC8CF80915B
S1130E607505883091F018F48630C9F0C0CF893008
S1130E7019F0893109F0BBCF86E18093420162E029
S1130E8070E080E090E0F1DEB2CFFADE86E180939C
S1130E90420162E070E080E090E0E7DEA8CF89E004
S1130EA08093420162E070E080E090E0DEDE8091B9
S1130EB041018F7180937505893009F047C086E13F
S1130EC08093420162E070E080E090E0CEDE8FCF5C
S1130ED080917505883051F118F4863079F087CF08
S1130EE0893019F0863151F082CF89E18093420133
S1130EF062E070E080E090E0B8DE79CF89E0809332
S1130F00420162E070E080E090E0AFDE8091410158
S1130F108F71809375058930C9F489E1809342010A
S1130F2062E070E080E090E0A0DE61CFA9DE89E1BC
S1130F308093420162E070E080E090E096DE57CF5B
S1130F4080818F71809375058F31D1F30F90DF917C
S1130F50CF911F910895CF93DF9380914E058823FD
S1130F6019F180917A0581111FC0809166049091D6
S1130F706704892B41F48BE8B7DD90936704809371
S1130F806604892B89F010924E05CCE4D1E0888167
S1130F908F77888363E070E080E090E066DE88818C
S1130FA08068888386E18CDE80915305882341F034
S1130FB060E070E08FE495E054DE009709F024D5FA
S1130FC080917A05823009F485D5DF91CF91089517
S1130FD004C0615071098109910961157105810588
S1130FE09105B9F70895FF920F931F93CF93DF9361
S1130FF086E066DE8630E1F7E5E5F1E080818F7713
S1131000808310924E016894FF24F3F8C0E0D0E08E
S113101006E411E0F8019081CC0FDD1FCC0FDD1F39
S11310209076292F30E036952795329522952F70AA
S113103023273F702327C22BD32B62E070E080E08C
S113104090E0C6DFFA94F110E5CF83E039DE8FEF4C
S113105080934F0188E480934E01CE010E943314A3
S1131060DF91CF911F910F91FF900895FF920F93FD
S11310701F93CF93DF93F82EC9E3D1E088818D7F4E
S1131080888361E471E080E090E0A2DF88818E7F54
S1131090888362E070E080E090E09ADF888181607C
S11310A0888366E870E080E090E092DF80914101FF
S11310B08F71CAE001E411E00AC066E870E080E0E4
S11310C090E086DFF80180818F71C150C9F18830CA
S11310D0A1F78093750587DF0E94301480936D011A
S11310E0EEE6F1E080819770887F892B8083808190
S11310F080628083ECE4F1E080818068808388E40E
S113110080934E018FEF80935601EDE4F1E08081EE
S11311108C7F82608083AAE4B1E08C91807F8360BD
S11311208C93808188608083808184608083F110C7
S113113030D27DD210927A0510924E0580E001C023
S113114085E8DF91CF911F910F91FF900895CF9281
S1131150DF92EF92FF920F931F93CF93DF9314BE0E
S113116080E180933501809334018093330180932F
S1131170320192DC81116DC060E481E0BADAC9E326
S1131180D1E088818160888388818D7F88836BEF3B
S113119071E080E090E01CDF88818E7F888362E0CC
S11311A070E080E090E014DF88818160888366E8E5
S11311B070E080E090E00CDF809141018F71CAE023
S11311C001E411E00BC066E870E080E090E000DF2D
S11311D0F80180818F71C15009F451C0883099F7AA
S11311E08093750580915C01843909F048C035C04D
S11311F00E943014F80181938F01EC15FD05C1F7AD
S1131200F701208131814281538164817581868116
S11312109781AFEF0E94D113ADEF0E94DD1321F04F
S113122018F006E515E0E4CF83E79AE038D084E8C7
S11312309AE030D085E99AE037D032DC8BE854DC90
S113124090936704809366048FE495E0DEDCCBD54D
S113125017C0C5E815C0C5E813C081E007DFC82F73
S11312608111F9CF0F2EF6E5EF2EF5E0FF2EF02DCC
S11312700F2EFEE5CF2EF5E0DF2EF02DC1CFC5E811
S11312808C2FDF91CF911F910F91FF90EF90DF9002
S1131290CF90089590936F0480936E040895909373
S11312A06D0480936C04089590936904809368049A
S11312B008951F920F920FB60F9211240BB60F923E
S11312C02F933F934F935F936F937F938F939F934A
S11312D0AF93BF93EF93FF93E0916E04F0916F048B
S11312E01995FF91EF91BF91AF919F918F917F914C
S11312F06F915F914F913F912F910F900BBE0F9083
S11313000FBE0F901F9018951F920F920FB60F9259
S113131011240BB60F922F933F934F935F936F93C8
S11313207F938F939F93AF93BF93EF93FF93E0913A
S11313306C04F0916D041995FF91EF91BF91AF91F9
S11313409F918F917F916F915F914F913F912F91D9
S11313500F900BBE0F900FBE0F901F9018951F9209
S11313600F920FB60F9211240BB60F922F933F9347
S11313704F935F936F937F938F939F93AF93BF9399
S1131380EF93FF93E0916A04F0916B041995FF9138
S1131390EF91BF91AF919F918F917F916F915F91E9
S11313A04F913F912F910F900BBE0F900FBE0F9056
S11313B01F9018951F920F920FB60F9211240BB61F
S11313C00F922F933F934F935F936F937F938F93DA
S11313D09F93AF93BF93EF93FF93E0916804F091D1
S11313E069041995FF91EF91BF91AF919F918F91EE
S11313F07F916F915F914F913F912F910F900BBE11
S11314000F900FBE0F901F9018951F920F920FB65A
S11314100F9211240F900FBE0F901F9018951F92DA
S11314200F920FB60F9211240F900FBE0F901F90C2
S113143018951F920F920FB60F9211240F900FBEA2
S11314400F901F9018951F920F920FB60F921124B0
S11314500F900FBE0F901F9018951F920F920FB60A
S11314600F9211240F900FBE0F901F9018951F928A
S11314700F920FB60F9211240F900FBE0F901F9072
S113148018951F920F920FB60F9211240F900FBE52
S11314900F901F9018951F920F920FB60F92112460
S11314A00F900FBE0F901F9018951F920F920FB6BA
S11314B00F9211240F900FBE0F901F9018951F923A
S11314C00F920FB60F9211240F900FBE0F901F9022
S11314D018951F920F920FB60F9211240F900FBE02
S11314E00F901F9018951F93CF93DF931F92CDB742
S11314F0DEB78FB78983F894198119D21FBF0F9073
S1131500DF91CF911F9108951F93CF93DF931F9283
S1131510CDB7DEB78FB78983F8941981A6D31FBFDF
S11315200F90DF91CF911F91089581E08093790509
S1131530089585FD03C0982F9F7304C0982F91953B
S11315409F719195E2E6F1E02491291754F4849176
S1131550803EB4F08032B4F48823CCF48F7180627E
S113156016C0E1E7F1E0249192178CF48491803E57
S11315705CF080325CF4882354F48F71806207C07D
S113158080E205C08FE103C080E201C08FE1806882
S11315900895CF93DF93C6E5D5E084E08C8B83E098
S11315A08D8B2FEF3FEF3F872E873D872C879BE066
S11315B09B8B188E40E058EF6FEF77E04887598790
S11315C06A877B872AE031E0398B288B9AE0998FF0
S11315D092E09A8F95E09B8F8C8F84E8AADF8F8BA3
S11315E081E08A8B1E8ADF91CF91089585FD02C028
S11315F08F7303C081958F718195E2E6F1E0949138
S113160089173CF4E3E6F1E021E0949189173CF07A
S113161001C020E098174CF48FEF820F08952F5FDC
S11316203196203191F780E00895822F0895CF9369
S1131630DF93E6E5F5E086858093620187858093F4
S11316406301E4E6F1E0A6E5B5E08D918193EC3623
S113165031E0F307D1F7E6E5F5E084858093600196
S113166085858093610148E451E0DA018C912289F7
S1131670B0E22B9F9001112420768F79822BDA011E
S11316808C93CFE6D1E0888195899F70807F892BE8
S113169088832EE631E0D9018C919689990F990FB0
S11316A0990F9870877F892B8C932881938DB0E153
S11316B09B9FC0011124922F9F70892B8883DA018C
S11316C08C9193899F71807E892B8C9387898EDF7F
S11316D0E5E4F1E09081907F8F70892B8083DF9126
S11316E0CF910895CF93DF938E3441F0893561F41F
S11316F0FB0180818093720580E00BC1FB01808136
S113170080936A0580E005C1909175059F3009F4C6
S1131710DCC08B3009F4C9C080F4EB01823009F4D9
S113172084C020F4882309F446C0D1C0833009F46E
S11317308CC0843009F45AC0CAC0833579F128F4C6
S11317408F3451F08035E9F0C2C0873509F456C0B2
S1131750803F09F48BC0BBC0FB018081E6E5F5E066
S1131760858B938D981710F490936B05EFE6F1E059
S1131770808190916B059F70807F892B808380E0AE
S1131780C8C0FB0190818181E6E5F5E096878787F3
S1131790909362018093630180E0BBC0FB01908160
S11317A08181E6E5F5E094878587909360018093D5
S11317B0610180E0AEC080917A0581118AC0888180
S11317C040E058EF6FEF77E0082E04C076956795F8
S11317D0579547950A94D2F740FF7DC0983009F495
S11317E080C088E06DDA8830E1F786C080917A05A0
S11317F0811173C08881811172C08BC0FB019081FB
S1131800E6E5F5E0938F8589981710F490936B05BE
S1131810EFE6F1E08081282F2F7030E1939FC00123
S11318201124822B808380E074C08881C6E5D5E0D2
S11318308F8B7FDE8F8BDADEE5E4F1E09081907FA1
S11318408F70892B808380E064C0888180936805D1
S1131850E8E4F1E0208130E2839FC0011124807626
S1131860922F9F79892B808380E053C0FB01B08144
S1131870A181528143813481258196818781E6E566
S1131880F5E0B083A1835283438334832583968315
S11318908783E4E6F1E0A6E5B5E08D918193EC362B
S11318A031E0F307D1F780E034C0FB0180818093FD
S11318B06C05EEE6F1E09081880F880F880F887040
S11318C0977F892B808380E024C081E822C084EF45
S11318D020C086E81EC088EE1CC086E81AC088EEC8
S11318E018C080936905E8E4F1E09081907E8F71DF
S11318F0892B808380E00DC0888180936905E8E4AA
S1131900F1E09081907E8F71892B808386E1D8D914
S113191080E0DF91CF91089504C06150710981097D
S113192091096115710581059105B9F70895CF9263
S1131930DF92EF92FF920F931F93CF93DF93E09187
S11319406604F0916704309771F4CCE4D1E08881A7
S11319508F77888363E070E080E090E0DDDF88814A
S11319608068888348C00091470110917B0111234E
S11319700CF441C0E080F18082E0810FEBE8F0E0FC
S1131980E81BF109E701CE0FDF1FC12ED12CA60100
S11319904F5F5F4F60E871E0CE0170D7FE01129394
S11319A0D7011896FC93EE931797EC0DFD1D028357
S11319B060916604709167048FE495E02DD98BE8FB
S11319C093D89093670480936604892B21F481E073
S11319D080934E050DC0CCE4D1E088818F77888355
S11319E063E070E080E090E097DF8881806888831E
S11319F080E480934F01DF91CF911F910F91FF906D
S1131A00EF90DF90CF900895CF93DF93AC01FC016A
S1131A10C081D181AF81B8858C9180937605E82F00
S1131A20F0E03196EA0FFB1F808131813D3320F4D1
S1131A30311103C031E001C03CE38295869586955F
S1131A4083702FEF829FC0011124389FB001399F0A
S1131A50700D11249B01A3E8BDE28AD69695879563
S1131A60929582958F7089279F7089278F3F910562
S1131A7011F008F08FEF80835A834983CE012ED66C
S1131A80DF91CF91089590917A05911116C0883015
S1131A9029F416D910924E0588E0089580916604C1
S1131AA090916704892B21F086E10AD986E0089594
S1131AB081E080934E0586E0089586E8089504C089
S1131AC061507109810991096115710581059105BB
S1131AD0B9F7089510927A0580917004833069F003
S1131AE028F4882391F0813031F00DC0853039F02D
S1131AF0873039F008C087E809C081EE07C089EE55
S1131B0005C085E803C085E801C080E06091540504
S1131B1070915505E0C508951F93CF93DF931F92ED
S1131B20CDB7DEB7182F662381F0ECE6F1E0208113
S1131B309091720530E1939FC0011124922F9F7000
S1131B40892B80831230E0F408C0ECE6F1E0808158
S1131B508F7080831230A0F40DC0ECE6F1E0808138
S1131B6090916A05990F9E70817F892B80831092D2
S1131B706F011AC0ECE6F1E080818E60808314C0AE
S1131B80E6E5F5E0838D20E1829FC001112495896B
S1131B90892B80936F01ACE6B1E08C919489990F05
S1131BA09E70817F892B8C9389E18AD88931E1F7F2
S1131BB01130A1F480917605833140F061E073E047
S1131BC080E090E07CDF109276050DC06BEA70E057
S1131BD080E090E074DF1092760505C06CE070E060
S1131BE080E090E06CDF8FB78983F8941981E9E392
S1131BF0F1E08081826080830000000080818D7F1D
S1131C0080836091770570917805FB01408150E0F5
S1131C104150510980E891E031D681E080937A0502
S1131C201FBF0F90DF91CF911F910895FC019091F8
S1131C307A05911116C0F0935505E0935405078079
S1131C40F085E02DF0937805E0937705808181504D
S1131C5080937605EF2B39F0862F642F5DDF80E0CB
S1131C60089586E8089588EE089580917A05813074
S1131C70C1F48091420182958695877080937004A7
S1131C8082E080937A058091660490916704892BA1
S1131C9031F489E015D881E080934E05089586E1FA
S1131CA00FC80895882329F1EDE4F1E080818C7F49
S1131CB08083808188608083AAE4B1E08C91807FF6
S1131CC083608C938081846080838081837009F039
S1131CD054C080914D0183FF52C080914D0182FF19
S1131CE050C080914A018F70833009F04CC080E06D
S1131CF00895EDE4F1E08081877F8083AAE4B1E078
S1131D008C91807F87608C93808184608083613034
S1131D1031F480818C7F8160808385E817C06230D4
S1131D2041F4EDE4F1E080818C7F8260808385E87A
S1131D300DC0662311F0633041F4EDE4F1E08081DD
S1131D408C7F808385E860E001C088EE20914D019E
S1131D50237030E070E026173707B9F490914D01F5
S1131D6093FD15C090914D0192FD13C090914A01CD
S1131D709F70933079F480E0089585E8089585E8AC
S1131D80089585E8089585E8089585E8089585E827
S1131D90089585E80895811124C0FB018081803D68
S1131DA02CF08FEC809371046FE012C0873A2CF40E
S1131DB086EA8093710460E00BC080937104082E5E
S1131DC0000C990B865A9F4F63E070E0B6D46F5FA6
S1131DD0E5E5F1E08081807F6F70682B608380E0AF
S1131DE0089584EF089586EA8093710461E774E0AE
S1131DF080E0D1DF61E080E00E94790360E180E06F
S1131E000E94790380E008950C949A0108950C943B
S1131E10D201089580918400909185000895EFE6A1
S1131E20F0E080818D7F8083B19A0895B19AEFE6C6
S1131E30F0E08081826080830895EFE6F0E08081A5
S1131E4081608083B09A089580E890E082C3089509
S1131E50E9E8F0E02081922B9083E8E8F0E09081BB
S1131E60892B80830895CF93DF931F92CDB7DEB77C
S1131E708FB78983F89489810F90DF91CF9108956A
S1131E808FBF0895CF93DF9380E890E0EBD264E0B6
S1131E907FE080E890E0D4D3CFE6D0E08881816011
S1131EA0888367E07FE080E890E0EAD388818D7FD3
S1131EB08883E1E8F0E080818160808388E0DF91BD
S1131EC0CF9108951F920F920FB60F9211240BB663
S1131ED00F922F933F934F935F936F937F938F93BF
S1131EE09F93AF93BF93EF93FF93E0919004F0918E
S1131EF09104309709F01995FF91EF91BF91AF913B
S1131F009F918F917F916F915F914F913F912F910D
S1131F100F900BBE0F900FBE0F901F9018951F923D
S1131F200F920FB60F9211240BB60F922F933F937B
S1131F304F935F936F937F938F939F93AF93BF93CD
S1131F40EF93FF93E0918E04F0918F04309709F0A2
S1131F501995FF91EF91BF91AF919F918F917F91CF
S1131F606F915F914F913F912F910F900BBE0F9006
S1131F700FBE0F901F9018951F920F920FB60F92DD
S1131F8011240BB60F922F933F934F935F936F934C
S1131F907F938F939F93AF93BF93EF93FF93E091BE
S1131FA08C04F0918D04309709F01995FF91EF910D
S1131FB0BF91AF919F918F917F916F915F914F915D
S1131FC03F912F910F900BBE0F900FBE0F901F905B
S1131FD018951F920F920FB60F9211240BB60F9201
S1131FE02F933F934F935F936F937F938F939F931D
S1131FF0AF93BF93EF93FF93E0918A04F0918B0426
S1132000309709F01995FF91EF91BF91AF919F918E
S11320108F917F916F915F914F913F912F910F908D
S11320200BBE0F900FBE0F901F9018951F920F922A
S11320300FB60F9211240BB60F922F933F934F9329
S11320405F936F937F938F939F93AF93BF93EF931C
S1132050FF93E0918804F0918904309709F0199571
S1132060FF91EF91BF91AF919F918F917F916F916C
S11320705F914F913F912F910F900BBE0F900FBE28
S11320800F901F9018951F920F920FB60F92112464
S11320900BB60F922F933F934F935F936F937F935E
S11320A08F939F93AF93BF93EF93FF93E091860435
S11320B0F0918704309709F01995FF91EF91BF9142
S11320C0AF919F918F917F916F915F914F913F91CC
S11320D02F910F900BBE0F900FBE0F901F9018956D
S11320E01F920F920FB60F9211240BB60F922F93DB
S11320F03F934F935F936F937F938F939F93AF938C
S1132100BF93EF93FF93E0918404F091850430979B
S113211009F01995FF91EF91BF91AF919F918F9124
S11321207F916F915F914F913F912F910F900BBED3
S11321300F900FBE0F901F9018951F920F920FB61D
S11321400F9211240BB60F922F933F934F935F93EB
S11321506F937F938F939F93AF93BF93EF93FF936B
S1132160E0918204F0918304309709F01995FF916E
S1132170EF91BF91AF919F918F917F916F915F91FB
S11321804F913F912F910F900BBE0F900FBE0F9068
S11321901F9018951F920F920FB60F9211240BB631
S11321A00F922F933F934F935F936F937F938F93EC
S11321B09F93AF93BF93EF93FF93E0918004F091CB
S11321C08104309709F01995FF91EF91BF91AF9178
S11321D09F918F917F916F915F914F913F912F913B
S11321E00F900BBE0F900FBE0F901F9018951F926B
S11321F00F920FB60F9211240BB60F922F933F93A9
S11322004F935F936F937F938F939F93AF93BF93FA
S1132210EF93FF93E0917E04F0917F04309709F0EF
S11322201995FF91EF91BF91AF919F918F917F91FC
S11322306F915F914F913F912F910F900BBE0F9033
S11322400FBE0F901F9018951F920F920FB60F920A
S113225011240BB60F922F933F934F935F936F9379
S11322607F938F939F93AF93BF93EF93FF93E091EB
S11322707C04F0917D04309709F01995FF91EF915A
S1132280BF91AF919F918F917F916F915F914F918A
S11322903F912F910F900BBE0F900FBE0F901F9088
S11322A018951F920F920FB60F9211240BB60F922E
S11322B02F933F934F935F936F937F938F939F934A
S11322C0AF93BF93EF93FF93E0917A04F0917B0473
S11322D0309709F01995FF91EF91BF91AF919F91BC
S11322E08F917F916F915F914F913F912F910F90BB
S11322F00BBE0F900FBE0F901F9018951F920F9258
S11323000FB60F9211240BB60F922F933F934F9356
S11323105F936F937F938F939F93AF93BF93EF9349
S1132320FF93E0917804F0917904309709F01995BE
S1132330FF91EF91BF91AF919F918F917F916F9199
S11323405F914F913F912F910F900BBE0F900FBE55
S11323500F901F9018951F920F920FB60F92112491
S11323600BB60F922F933F934F935F936F937F938B
S11323708F939F93AF93BF93EF93FF93E091760472
S1132380F0917704309709F01995FF91EF91BF917F
S1132390AF919F918F917F916F915F914F913F91F9
S11323A02F910F900BBE0F900FBE0F901F9018959A
S11323B01F920F920FB60F9211240BB60F922F9308
S11323C03F934F935F936F937F938F939F93AF93B9
S11323D0BF93EF93FF93E0917404F09175043097E9
S11323E009F01995FF91EF91BF91AF919F918F9152
S11323F07F916F915F914F913F912F910F900BBE01
S11324000F900FBE0F901F9018951F920F920FB64A
S11324100F9211240BB60F922F933F934F935F9318
S11324206F937F938F939F93AF93BF93EF93FF9398
S1132430E0917204F0917304309709F01995FF91BB
S1132440EF91BF91AF919F918F917F916F915F9128
S11324504F913F912F910F900BBE0F900FBE0F9095
S11324601F9018951F93CF93DF931F92CDB7DEB7BC
S11324702FB72983F8941981009709F464C0883729
S1132480910549F461E080E00E94790360E180E015
S11324900E94790358C0803C910529F462E080E0F1
S11324A00E94790350C08C34910529F464E080E0E3
S11324B00E94790348C08038910529F468E080E0DF
S11324C00E94790340C08434910529F460E280E0DD
S11324D00E94790338C0803B910529F460E480E0D0
S11324E00E94790330C0883B910529F460E880E0BC
S11324F00E94790328C0883C910529F461E081E0B9
S11325000E94790320C08039910529F468E081E0B4
S11325100E94790318C0803A910529F460E181E0B2
S11325200E94790310C0803221E0920729F460E20E
S113253081E00E94790307C08334914021F460E470
S113254081E00E9479031FBF0F90DF91CF911F910B
S113255008951F93CF93DF931F92CDB7DEB72FB7A4
S11325602983F8941981009709F464C08837910588
S113257049F461E080E00E94910360E180E00E9400
S1132580910358C0803C910529F462E080E00E94E8
S1132590910350C08C34910529F464E080E00E94DA
S11325A0910348C08038910529F468E080E00E94D6
S11325B0910340C08434910529F460E280E00E94D4
S11325C0910338C0803B910529F460E480E00E94C7
S11325D0910330C0883B910529F460E880E00E94B3
S11325E0910328C0883C910529F461E081E00E94B0
S11325F0910320C08039910529F468E081E00E94AC
S1132600910318C0803A910529F460E181E00E94A9
S1132610910310C0803221E0920729F460E281E046
S11326200E94910307C08334914021F460E481E067
S11326300E9491031FBF0F90DF91CF911F910895C6
S11326408038910529F4709391046093900408955F
S11326508039910529F4709389046093880408955E
S1132660803A910529F4709381046093800408955D
S11326708032914021F47093790460937804089532
S11326808038910529F470938F0460938E04089523
S11326908039910529F47093870460938604089522
S11326A0803A910529F470937F0460937E04089521
S11326B08032914021F470937704609376040895F6
S11326C00E941C030E945D030E944E050E94AB07FA
S11326D00E94F101F9CF0C9441020895CF93DF9346
S11326E0EC010E94190289819A810E947A05DF9186
S11326F0CF910895DB018F939F9349D0BF91AF9100
S1132700A29F800D911DA39F900DB29F900D112447
S11327100895AA1BBB1B51E107C0AA1FBB1FA61724
S1132720B70710F0A61BB70B881F991F5A95A9F776
S113273080959095BC01CD01089597FB072E16F462
S1132740009406D077FD08D0E4DF07FC05D03EF402
S1132750909581959F4F0895709561957F4F089549
S1132760EE0FFF1F881F8BBF0790F691E02D199481
S1132770A29FB001B39FC001A39F700D811D1124BE
S1132780911DB29F700D811D1124911D0895F0DFDC
S1132790A59F900DB49F900DA49F800D911D1124B1
S11327A008950024A7FD00942A0F301D401D501DDC
S11327B0601D701D801D901D08950024A7FD0094C8
S11327C02A17300540055005600570058005900501
S11327D008958F929F92AF92BF92CF92DF92EF9221
S11327E0FF92CF93DF93EC01688179818A819B8189
S11327F0611571058105910521F464E279ED8BE59C
S113280097E02DE133EF41E050E041D049015A0116
S11328109B01AC01A7EAB1E4BADF6B017C01ACEE29
S1132820B4EFA501940151D0DC01CB018C0D9D1DA9
S1132830AE1DBF1DB7FF03C00197A109B04888832F
S11328409983AA83BB839F77DF91CF91FF90EF9009
S1132850DF90CF90BF90AF909F908F900895B9CFA5
S113286080E092E0B6CFA0E0B0E0809300029093C5
S11328700102A0930202B09303020895FB01DC015C
S113288002C001900D9241505040D8F70895052E92
S113289097FB16F400940FD057FD05D01AD007FC0F
S11328A002D046F408C050954095309521953F4F8D
S11328B04F4F5F4F089590958095709561957F4F28
S11328C08F4F9F4F0895B7FF62CF61DF821B930B39
S11328D00895A1E21A2EAA1BBB1BFD010DC0AA1F5D
S11328E0BB1FEE1FFF1FA217B307E407F50720F075
S11328F0A21BB30BE40BF50B661F771F881F991FF0
S11329001A9469F760957095809590959B01AC0138
S10D2910BD01CF010895F894FFCF34
S113291A010000000702015465737420656E76692C
S107292A61646F0071
S9030000FC
