:10000000B8C00000D7C00000D5C00000D3C00000B9
:10001000D1C00000CFC00000CDC00000CBC00000A8
:10002000C9C00000C7C00000C5C00000C3C00000B8
:10003000C1C00000BFC00000BDC00000BBC00000C8
:10004000B9C000000C945C0E0C94890E0C94B60E92
:100050000C942F0EAFC00000ADC00000ABC000007C
:10006000A9C00000A7C00000A5C00000A3C00000F8
:10007000A1C000009FC000009DC000009BC0000008
:100080000C94100F0C943D0F0C946A0F0C94E30E1B
:1000900091C000008FC000008DC000008BC0000028
:1000A00089C0000087C000000C94C40F0C94F10FAD
:1000B0000C941E100C94970F7DC000000C947810C7
:1000C0000C94A5100C94D2100C944B1073C000002B
:1000D00071C000006FC000006DC000006BC0000068
:1000E00069C000000C948F090C9485090C9499093F
:1000F0000C94B4080C94DF080C947B090C948908C8
:100100000C940A0957C0000055C0000053C00000FD
:1001100051C000004FC000000C9467090C94710995
:100120000C945D090C9453090C9449090C943F09F3
:100130000C9435095C068106FB068E06FB064E060E
:100140006A06FB06FB06FB06FB06FB062206FB0611
:10015000FB06FB06FB06FB06FB06A606FB06FB06EC
:10016000D60604030302020100FFFEFDFCFBF9F7C3
:10017000F4EF11241FBECFEFD1E8DEBFCDBF00E00A
:100180000CBF12E0A0E0B2E0E0E3F6E200E00BBF5B
:1001900002C007900D92A433B107D9F725E0A4E37C
:1001A000B2E001C01D92A839B207E1F70E94ED113B
:1001B0000C94161325CF0E94EB0D209138022223B8
:1001C000D9F04091970530E020913802642F732FC9
:1001D0000E941412FB018FEF9FEF642F732F0E9478
:1001E000141230E0629FC001639F900D729F900DCA
:1001F00011248E0F9F1F08956091970570E00E9453
:100200001412CB0108950E94F00D0E940A0E109264
:100210003402109235021092360210923702109278
:100220003A02109239020C94170E0E94F90D1092A6
:1002300038020895E8DFF9DF0C94FC0D0F931F934B
:10024000CF93DF93EC010E94EB0D8C01BE0180E0A7
:1002500090E02091970530E040E050E00E940512C8
:10026000DC01CB01A80160E070E0480F591F6A1F54
:100270007B1F409334025093350260933602709393
:1002800037024091340250913502609136027091EC
:100290003702AB016627772740933402509335022B
:1002A00060933602709337024091340250913502C8
:1002B0006091360270913702411551056105710553
:1002C00091F0409134025091350260913602709164
:1002D00037020196080F191F10933A020093390252
:1002E0000E94F00D08C0080F191F10933A020093E6
:1002F00039020E94F20D8091390290913A028436BF
:10030000910530F48C599F4F90933A0280933902B3
:100310008091390290913A020E94FF0DDF91CF91B6
:100320001F910F910895109238020E94190E809328
:10033000970508958091340290913502A09136027C
:10034000B09137020097A105B105C9F08091340240
:1003500090913502A0913602B09137020197A10920
:10036000B1098093340290933502A0933602B09382
:1003700037020097A105B10511F40E94F20D80919A
:1003800038028F5F8093380290919705891748F063
:1003900010923802E0913B02F0913C02309709F054
:1003A000199508950E94F00DE0913D02F0913E02F2
:1003B000309709F01995089590933C0280933B0281
:1003C000089590933E0280933D02089586E598E556
:1003D000A4E1B0E00197A109B109E1F70895809186
:1003E0000802882371F08091060290910702FC01B7
:1003F00001900020E9F73197BF01681B790BCED03F
:10040000E5CF0895CF93DF9320913F02222319F186
:10041000EC0185E8E0EBF4E0DF01982F1D929A955E
:10042000E9F7EF81F885A0EBB4E001900D928A9591
:10043000E1F789819A81E7D28091040290910502C7
:10044000FC0101900020E9F73197BF01681B790B8F
:10045000DF91CF91A3C0DF91CF91089508954F927E
:100460005F926F927F928F92AF92CF92EF920F93A3
:100470001F93CF93DF93CDB7DEB7A9E8B0E0AE19F5
:10048000B109AE5BBD4F302F3D012801942D931B68
:100490009E1538F4F20191912F01F30191933F01E0
:1004A000F5CF423059F43BE03E0D40917E0550912E
:1004B0007F055E934E9340E050E82BC0189731E1E2
:1004C0003E0D909172059C939091730511969C93AB
:1004D00011979091740512969C93129790917505BF
:1004E00013969C9313979091760514969C9314976A
:1004F0009091770515969C9315979091780516968F
:100500009C9316979091790517969C93179740E0C6
:1005100050EC823059F4FB0160817181FD017293CE
:100520006293CF01FA01E064F8600DC0CD01089735
:100530003A5F18E0FB01DC0101900D921A95E1F79A
:10054000FA01E064FC604EEF5AECDC011297119660
:100550005C934E9311972C93C11002C0E16001C0CF
:10056000E162DC0115971196FC93EE9311973C9391
:10057000B0934A02A0934902482D6A2D82E492E08A
:10058000DF91CF911F910F91EF90CF90AF908F900F
:100590007F906F905F904F900C94F20C8F92AF927F
:1005A000CF92EF920F931F93CF93DF931F921F92DF
:1005B000CDB7DEB722E03AEA3A83298320914002A0
:1005C00030914102A9014F5F5F4F50934102409328
:1005D0004002812C32E0A32EC12CE62E8C0142E099
:1005E000BE016F5F7F4F82E03ADF0F900F90DF9187
:1005F000CF911F910F91EF90CF90AF908F90089572
:1006000086E00C942F0CCF93DF9300D000D0CDB7B1
:10061000DEB735D032D06FD1D5D48111FFCF7894E9
:1006200081E09AEA9C838B838EEF9AEC9A8389838C
:100630008CE08E831D82BE016D5F7F4F83E568D79E
:10064000BE016F5F7F4F80E563D7BE016A5F7F4F5A
:1006500080E05ED7BE016B5F7F4F84E059D762E0D8
:1006600080E00E94310DCCDF26960FB6F894DEBFF5
:100670000FBECDBFDF91CF91089508950895CF9318
:10068000DF931F92CDB7DEB78FEF80936400809326
:1006900065008FB78983F89489815F9350E8509300
:1006A000610050E0509361005F918FBF0F90DF9128
:1006B000CF910895CF93DF931F92CDB7DEB79FB749
:1006C0009983F8949981823040F4E82FF0E0EC5956
:1006D000FF4F60958081682360839FBF0F90DF91FB
:1006E000CF910895CF93DF931F92CDB7DEB79FB719
:1006F0009983F8949981823038F4E82FF0E0EC592E
:10070000FF4F8081682B60839FBF0F90DF91CF9157
:100710000895CF93DF931F92CDB7DEB78FB789834C
:10072000F89489810F90DF91CF9108958091D10243
:10073000882319F081E08093690508950F931F9332
:10074000CF93DF93C0913505D091360534DD9C0100
:100750008091350590913605C817D90799F7CE01D4
:10076000A0E0B0E0BC0155274427C901A0E0B0E0FB
:100770008C019D01042B152B262B372BC901B801A9
:10078000DF91CF911F910F910895CF93DF938091C7
:100790003505909136050196909336058093350581
:1007A000B8DFD82FE091D002EF3FF1F0CAE0CE9F42
:1007B000F0011124E95CFA4F8185811115C0808117
:1007C0009181A281B38120913505309136052A1798
:1007D0003B0751F433DDE091D002CE9FF0011124AC
:1007E000E95CFA4F81E08187DFBFDF91CF91089507
:1007F000CF92DF92EF92FF920F931F93CF93DF93ED
:100800008F3F61F1C82F9ADF2AE0C29FE0011124D7
:10081000C95CDA4F088119812A813B81680179011D
:10082000C61AD70AE80AF90AD701C6012FEFC2167D
:10083000D206E2062FE7F20668F42985211117C0D7
:10084000C114D10421E0E206F10488F4F7DC81E070
:1008500089870DC081E08093690509C0DF91CF9140
:100860001F910F91FF90EF90DF90CF90CCCCDF9154
:10087000CF911F910F91FF90EF90DF90CF9008954F
:10088000809169058823B1F1109269052091D10208
:10089000222381F18091CF02A091CE02E091D0027B
:1008A0008F3F39F4AF3F29F4E093CE02E093CF02BB
:1008B0000AC08AE0A89FD0011124A95CBA4F1896FB
:1008C000EC93E093CE029AE09E9FF0011124E95C44
:1008D000FA4F80858093D002E091CE029E9FF00176
:1008E0001124E95CFA4F9FEF9087920F9093D10209
:1008F00091117ECF08951092D10210926905109245
:100900003605109235058FEF8093D0028093CF0289
:100910008093CE02E7E3F5E08087158214823A9651
:1009200095E0E936F907C1F71092CD0285EC93E026
:1009300043DD86E993E045DDF6CC1F93CF93DF934B
:10094000E8DEC82F9DDFCFBFDAE01FEFC091CF02F6
:10095000CF3F51F1DEDEDC9FD0011124A95CBA4FFC
:1009600018969C9118971496ED91FC9115971696F0
:100970002D913C91179718961C93189715961C92D9
:100980001E92149717961C921E92169719961C92F7
:100990009093CF029F3F11F49093CE028FBF309778
:1009A000A9F2C9011995D2CFDF91CF911F91089576
:1009B00080E00895C2CFCF93DF9382ED92E0ABD079
:1009C000C7EDD2E083EE92E099838883BE0182ED89
:1009D00092E0A8D08EE693E09D838C836BED72E06D
:1009E00082ED92E09FD089EF93E0998788876FED41
:1009F00072E082ED92E0DF91CF9194C060E070E010
:100A000082ED92E0B4C0009721F0BC0182ED92E04B
:100A100089C008958F929F92AF92BF92CF92DF923A
:100A2000EF92FF920F931F93CF93DF931F92CDB757
:100A3000DEB72FB72983F894A980DC0114962C9196
:100A4000211103C000E010E056C06A01B62E7C01FF
:100A5000FC0100811181452BB1F048010115110500
:100A600089F3D60112966D917C911397ED91FC91CB
:100A7000D8018D919C911995811109C04801F80107
:100A800002811381EBCF0115110551F4DBCFB110B9
:100A900032C0D7018D919C910817190759F403C0F2
:100AA000611129C04801F80182819381D7018D939A
:100AB0009C9308C0F80182819381D40113969C9382
:100AC0008E931297F701828193810817190711F409
:100AD00093828282D70114968C9114978150149638
:100AE0008C9314978D919C911197892B21F41396D7
:100AF0001C921E921297AFBEC8010F90DF91CF914A
:100B00001F910F91FF90EF90DF90CF90BF90AF902B
:100B10009F908F900895FC0111821082138212829F
:100B200014820895CF93DF931F92CDB7DEB7FC01F7
:100B30008FB78983F89499818481811103C071836F
:100B4000608306C0A281B38113967C936E93129743
:100B500073836283DB0113961C921E921297848129
:100B60008F5F84839FBF0F90DF91CF910895AB017A
:100B700060E050CF04C0615071098109910961158D
:100B8000710581059105B9F70895CF9380914101D1
:100B90008F71883091F481E080934F0189E08093D8
:100BA0004201C3E080914F0180FD07C063E970E01E
:100BB00080E090E0DFDFC150A9F7CF9108951F9347
:100BC000CF93DF931F92CDB7DEB7182F8091910599
:100BD0008F3051F51F3009F415C11092950585EC41
:100BE00099E092D28FB78983F89499817894809113
:100BF00039018D7F80933901809195058823E1F338
:100C00009FBF8FEF80934F0188E480934E018091C6
:100C10004D01846080934D01183011F0133021F4A0
:100C200088E080939105EEC0812F90E0FC0133971E
:100C3000E731F10508F0DFC08827E656FF4F8F4FF8
:100C40000C943B1283E08093420180914D018B7F95
:100C500080934D010E94BB1280936D0180916E01C3
:100C60009770887F982B90936E018FEF80934F0140
:100C700080E880934E0162E070E080E090E07ADFEF
:100C8000809139018260809339016FE270E080E0E9
:100C900090E070DF8FE080939105B4C08091910562
:100CA000883009F4A8C088E08093420162E070E0D7
:100CB00080E090E05FDF9FC080919105883009F46B
:100CC0009AC083E08093420162E070E080E090E0AF
:100CD00051DF91C0809191058830F1F020F4863089
:100CE00009F089C005C0863119F0893109F083C047
:100CF00089E08093420162E070E080E090E03ADFBA
:100D00007AC080919105883039F0893009F473C038
:100D100084E0809342016FC038DF6DC080919105FF
:100D2000893059F028F4883009F065C02EDF05C0FD
:100D3000863119F0893109F05EC086E08093420166
:100D400062E070E080E090E015DF55C08091910591
:100D5000883051F018F4863089F04DC08930E9F0C0
:100D6000893109F048C019C010DF86E18093420143
:100D700062E070E080E090E0FDDE3DC089E08093BD
:100D8000420162E070E080E090E0F4DE8091410199
:100D90008F71809391058930A9F586E18093420196
:100DA00062E070E080E090E0E5DE25C08091910592
:100DB0008830C1F018F4863029F01DC0893099F0D0
:100DC0008631C9F489E08093420162E070E080E0FE
:100DD00090E0D0DE809141018F7180939105893040
:100DE00089F401C0D2DE89E18093420162E070E0C3
:100DF00080E090E0BFDE809141018F71809391058A
:100E00008F31C9F30F90DF91CF911F910895809199
:100E10006A05882349F180919605811125C080914A
:100E2000840490918504892B31F48BE8E7DD90935D
:100E30008504809384048091840490918504892B97
:100E400099F010926A0580914C018F7780934C0144
:100E500063E070E080E090E08DDE80914C0180687E
:100E600080934C0186E1ABDE80916F05882341F0D1
:100E700060E070E08BE695E07ADE009709F0BAD486
:100E800080919605823009F411C5089504C061501F
:100E90007109810991096115710581059105B9F7FC
:100EA0000895CF93809139018D7F8093390161E45A
:100EB00071E080E090E0EADF809139018E7F8093DD
:100EC000390162E070E080E090E0E0DF809139017C
:100ED000816080933901CBE066E870E080E090E0CB
:100EE000D5DF809141018F71C15031F08830A1F779
:100EF0008093910580E001C085E8CF9108950E941C
:100F0000BB1280936D01EEE6F1E080819770887FDF
:100F1000982B9083808180628083ECE4F1E0808173
:100F20008068808388E480934E018FEF8093560120
:100F3000EDE4F1E080818C7F82608083AAE4B1E0FF
:100F40008C91807F83608C93808188608083808196
:100F50008460808308951F93CF93DF9386E02FDE14
:100F60008630E1F7809155018F778093550110927B
:100F70004E0118E0C0E0D0E020914601CC0FDD1F0B
:100F8000CC0FDD1F922F9076292F30E095E035951C
:100F900027959A95E1F7C22BD32B62E070E080E0B1
:100FA00090E074DF115041F783E009DE8FEF80930A
:100FB0004F0188E480934E01CE01DF91CF911F91C4
:100FC0000C94BE12EF92FF920F931F93CF9314BE17
:100FD00080E18093350180933401809333018093C5
:100FE0003201E6DC81117EC060E481E063DB809148
:100FF0003901816080933901809139018D7F80931F
:1010000039016BEF71E080E090E040DF80913901C1
:101010008E7F8093390162E070E080E090E036DFFF
:1010200080913901816080933901CBE066E870E0FE
:1010300080E090E02BDF809141018F71C15009F475
:1010400051C0883099F78093910580915C01843973
:1010500009F048C026DFC82F811144C07CDF4FDF74
:10106000B9D1FDD11092960510926A058AE7E82E53
:1010700085E0F82E2091720530917305409174053A
:10108000509175056091760570917705809178058E
:1010900090917905AFEF0E944D12ADEF0E94591269
:1010A00061F058F002E715E00E94BB12F80181934D
:1010B0008F01EE16FF06C1F7DDCF83EA99E01FD05E
:1010C00084EB99E017D085EC99E01ED074DC8BE8B6
:1010D00095DC90938504809384048BE695E01BDD7A
:1010E00058D501C0C5E88C2FCF911F910F91FF906B
:1010F000EF90089590938D0480938C0408959093BD
:101100008B0480938A0408959093870480938604C7
:1011100008951F920F920FB60F9211240BB60F92E3
:101120002F933F934F935F936F937F938F939F93EF
:10113000AF93BF93EF93FF93E0918C04F0918D04F4
:101140001995FF91EF91BF91AF919F918F917F91F1
:101150006F915F914F913F912F910F900BBE0F9028
:101160000FBE0F901F9018951F920F920FB60F92FF
:1011700011240BB60F922F933F934F935F936F936E
:101180007F938F939F93AF93BF93EF93FF93E091E0
:101190008A04F0918B041995FF91EF91BF91AF9163
:1011A0009F918F917F916F915F914F913F912F917F
:1011B0000F900BBE0F900FBE0F901F9018951F92AF
:1011C0000F920FB60F9211240BB60F922F933F93ED
:1011D0004F935F936F937F938F939F93AF93BF933F
:1011E000EF93FF93E0918804F09189041995FF91A2
:1011F000EF91BF91AF919F918F917F916F915F918F
:101200004F913F912F910F900BBE0F900FBE0F90FB
:101210001F9018951F920F920FB60F9211240BB6C4
:101220000F922F933F934F935F936F937F938F937F
:101230009F93AF93BF93EF93FF93E0918604F09158
:1012400087041995FF91EF91BF91AF919F918F9175
:101250007F916F915F914F913F912F910F900BBEB6
:101260000F900FBE0F901F9018951F920F920FB600
:101270000F9211240F900FBE0F901F9018951F9280
:101280000F920FB60F9211240F900FBE0F901F9068
:1012900018951F920F920FB60F9211240F900FBE48
:1012A0000F901F9018951F920F920FB60F92112456
:1012B0000F900FBE0F901F9018951F920F920FB6B0
:1012C0000F9211240F900FBE0F901F9018951F9230
:1012D0000F920FB60F9211240F900FBE0F901F9018
:1012E00018951F920F920FB60F9211240F900FBEF8
:1012F0000F901F9018951F920F920FB60F92112406
:101300000F900FBE0F901F9018951F920F920FB65F
:101310000F9211240F900FBE0F901F9018951F92DF
:101320000F920FB60F9211240F900FBE0F901F90C7
:1013300018951F920F920FB60F9211240F900FBEA7
:101340000F901F9018951F93CF93DF931F92CDB7E7
:10135000DEB78FB78983F8941981E4D11FBF0F904E
:10136000DF91CF911F9108951F93CF93DF931F9229
:10137000CDB7DEB78FB78983F894198153D31FBFD8
:101380000F90DF91CF911F91089581E08093950593
:101390000895982F85FD02C09F7303C091959F719A
:1013A0009195E2E6F1E0249129172CF0E1E7F1E0D4
:1013B000249192176CF48491803E3CF080323CF48E
:1013C00087FF06C08F71806203C080E201C08FE199
:1013D00080680895CF93DF93C2E7D5E084E08C8BDB
:1013E00083E08D8B2FEF3FEF3F872E873D872C8744
:1013F0009BE09B8B188E40E058EF6FEF77E04887BB
:1014000059876A877B872AE031E0398B288B9AE0FD
:10141000998F92E09A8F95E09B8F8C8F84E8B9DF4B
:101420008F8B81E08A8B1E8ADF91CF910895982F50
:1014300085FD02C09F7303C091959F719195E2E66F
:10144000F1E080E02491921724F029173CF48150B8
:1014500008958F5F31968031A9F780E008958091DB
:101460008005809362018091810580936301E4E6A9
:10147000F1E0A2E7B5E08D918193EC3631E0F3071E
:10148000D1F780917E058093600180917F058093E4
:101490006101809148012091840590E2299F90018B
:1014A000112420768F79822B8093480180916F01DF
:1014B000909187059F70807F892B80936F01809129
:1014C0006E019091880590FB83F980936E012091C5
:1014D0006F0190918D0530E1939FC0011124922FEF
:1014E0009F70892B80936F018091480190918505B1
:1014F0009F71807E892B809348018091890597DFB9
:1015000090914501907F8F70892B809345010895BC
:10151000CF93DF93FB018E3439F0893551F480810C
:1015200080938E0580E0FAC080818093860580E0FC
:10153000F5C0209191052F3009F4E9C08B3009F4F2
:10154000DBC080F4EB01823009F4AEC020F48823C4
:1015500009F460C0DEC0833009F4B6C0843009F4F9
:1015600085C0D7C0833509F449C088F48F3491F120
:10157000803509F0CEC09081818190938005809361
:101580008105909362018093630180E0C7C0873535
:1015900009F474C0803F09F0BCC070816181528140
:1015A0004381348125819681878170937205609390
:1015B0007305509374054093750530937605209319
:1015C00077059093780580937905E4E6F1E0A2E74A
:1015D000B5E08BC090819093870580918D05891728
:1015E00010F48093870580916F01909187059F701B
:1015F000807F892B80936F0180E090C090818181F2
:1016000090937E0580937F059093600180936101A4
:1016100080E084C08091960581117DC080E098EFC4
:10162000AFEFB7E0008004C0B695A7959795879572
:101630000A94D2F780FF71C0283031F088E0BFDA19
:101640008830E1F726E101C028E088818093850594
:1016500090914801907E8F71892B809348012830AA
:1016600009F441C086E1ABDA80E058C0809196056C
:10167000811151C08081811150C035C090819093FB
:101680008D0580918705981710F4909387058091B8
:101690006F01282F2F7030E1939FC0011124822BFE
:1016A00080936F0180E03AC080818093890571DE6C
:1016B00080938905BCDE90914501907F8F70892BC6
:1016C0008093450180E02AC0808180938405209129
:1016D000480130E2839FC00111248076922F9F79C8
:1016E000892B8093480180E019C08D918193EC365D
:1016F00081E0F807D1F7F7CF90819093880580912A
:101700006E0190FB83F980936E0180E007C081E851
:1017100005C084EF03C086E801C088EEDF91CF9159
:1017200008950895CF92DF92EF92FF920F931F9347
:10173000CF93DF93E0918404F0918504309761F4B6
:1017400080914C018F7780934C01EBDF80914C01AD
:10175000806880934C0145C0C0904701D0907B01C8
:10176000D7FC3FC0E080F18082E08D0DEBE8F0E037
:10177000E81BF109E701CE0FDF1F0D2D10E0A801D6
:101780004F5F5F4F60E871E0CE0103D7FE01D29258
:10179000D7011896FC93EE931797E00FF11FC282C2
:1017A00060918404709185048BE695E0BBD98BE849
:1017B00025D99093850480938404892B21F481E0BA
:1017C00080936A050BC080914C018F7780934C0108
:1017D000A8DF80914C01806880934C0180E4809365
:1017E0004F01DF91CF911F910F91FF90EF90DF900C
:1017F000CF9008950F931F93CF93DF938C01FC013B
:10180000C081D181AF81B8858C9180939205E82FFA
:10181000F0E03196EA0FFB1F208191819D3320F487
:10182000911103C091E001C09CE322952695269575
:1018300023708FEF289F90011124929FA001939F06
:10184000500D1124CA0164EB70E0EED560831A8359
:101850000983CE01DF91CF911F910F91CBC590915C
:101860009605911116C0883029F4A9D910926A05FD
:1018700088E008958091840490918504892B21F05B
:1018800086E19DD986E0089581E080936A0586E02F
:10189000089586E8089504C061507109810991098D
:1018A0006115710581059105B9F7089510929605A6
:1018B000E0918E04E83028F4F0E0E45DFD4F808193
:1018C00001C085E8609170057091710591C51F9305
:1018D000CF93DF931F92CDB7DEB7182F6623E1F0C9
:1018E00020916C0190918E0530E1939FC0011124ED
:1018F000922F9F70892B80936C011230D0F49091BD
:101900006C0180918605880F8E70917F892B809362
:101910006C0110926F0122C080916C018F708093D6
:101920006C01123030F480916C018E6080936C01F8
:1019300015C080918D05E0E18E9FC001112490912A
:101940008705892B80936F0190916C0180918605AA
:10195000880F8E70917F892B80936C0189E12FD93C
:101960008931E1F71130A1F480919205833140F083
:1019700061E073E080E090E08EDF109292050DC090
:101980006BEA70E080E090E086DF1092920505C07F
:101990006CE070E080E090E07EDF8FB78983F894A0
:1019A0001981809139018260809339010000000023
:1019B000809139018D7F80933901609193057091F9
:1019C0009405FB01408150E04150510980E891E0CD
:1019D000E0D581E0809396051FBF0F90DF91CF91F6
:1019E0001F910895FC01962F80919605811116C0D4
:1019F000F0937105E09370050780F085E02DF0937A
:101A00009405E09393058081815080939205EF2B9C
:101A100039F0642F892F5BDF80E0089586E8089510
:101A200088EE0895CF93C0919605C130C1F480919E
:101A3000420182958695877080938E0482E0809320
:101A400096058091840490918504892B29F489E07E
:101A5000B6D8C0936A0503C086E1CF91B0C8CF91D4
:101A60000895882351F180914D018C7F80934D0121
:101A700080914D01886080934D0180914A01807F63
:101A8000836080934A0180914D01846080934D0171
:101A900080914D01837011F085E8089580914D018A
:101AA00083FFFACF80914D0182FFF6CF80914A01EA
:101AB0008F70833089F780E0089580914D01877F92
:101AC00080934D0180914A01807F876080934A0115
:101AD00080914D01846080934D01613041F480918B
:101AE0004D018C7F816080934D0185E817C0623085
:101AF00041F480914D018C7F826080934D0185E897
:101B00000DC0662311F0633041F480914D018C7F4C
:101B100080934D0185E860E001C088EE20914D0181
:101B2000237030E070E02617370709F0B5CF9091A9
:101B30004D0193FDB1CF90914D0192FDADCF9091AC
:101B40004A019F70933009F4B6CF0895FC0180815B
:101B5000803D2CF08FEC80938F046FE012C0873AA9
:101B60002CF486EA80938F0460E00BC080938F048E
:101B7000082E000C990B865A9F4F63E070E068D4E2
:101B80006F5F80915501807F682B6093550180E0E5
:101B9000089586EA80938F048FE894E0D7DF61E0B0
:101BA00080E00E945A0360E180E00E945A0380E0D6
:101BB00008950C949A010C94D201B19A0895EFE61D
:101BC000F0E080818D7F80830895EFE6F0E08081F2
:101BD00081608083089580918400909185000895AC
:101BE000EEDFEBCFEADFEFE6F0E08081826080831A
:101BF0000895EBDFB09A089580E890E057C3E9E8D4
:101C0000F0E02081922B9083E8E8F0E09081892B2E
:101C100080830895CF93DF931F92CDB7DEB78FB740
:101C20008983F89489810F90DF91CF9108958FBFB8
:101C3000089580E890E0E3D269ED7DE080E890E0EF
:101C40008CD3C3DF6BED7DE080E890E0A6D3B7DFF7
:101C5000E1E8F0E080818160808388E008951F9250
:101C60000F920FB60F9211240BB60F922F933F9342
:101C70004F935F936F937F938F939F93AF93BF9394
:101C8000EF93FF93E091AE04F091AF04309709F029
:101C90001995FF91EF91BF91AF919F918F917F9196
:101CA0006F915F914F913F912F910F900BBE0F90CD
:101CB0000FBE0F901F9018951F920F920FB60F92A4
:101CC00011240BB60F922F933F934F935F936F9313
:101CD0007F938F939F93AF93BF93EF93FF93E09185
:101CE000AC04F091AD04309709F01995FF91EF9194
:101CF000BF91AF919F918F917F916F915F914F9124
:101D00003F912F910F900BBE0F900FBE0F901F9021
:101D100018951F920F920FB60F9211240BB60F92C7
:101D20002F933F934F935F936F937F938F939F93E3
:101D3000AF93BF93EF93FF93E091AA04F091AB04AC
:101D4000309709F01995FF91EF91BF91AF919F9155
:101D50008F917F916F915F914F913F912F910F9054
:101D60000BBE0F900FBE0F901F9018951F920F92F1
:101D70000FB60F9211240BB60F922F933F934F93F0
:101D80005F936F937F938F939F93AF93BF93EF93E3
:101D9000FF93E091A804F091A904309709F01995F8
:101DA000FF91EF91BF91AF919F918F917F916F9133
:101DB0005F914F913F912F910F900BBE0F900FBEEF
:101DC0000F901F9018951F920F920FB60F9211242B
:101DD0000BB60F922F933F934F935F936F937F9325
:101DE0008F939F93AF93BF93EF93FF93E091A604DC
:101DF000F091A704309709F01995FF91EF91BF91E9
:101E0000AF919F918F917F916F915F914F913F9192
:101E10002F910F900BBE0F900FBE0F901F90189533
:101E20001F920F920FB60F9211240BB60F922F93A1
:101E30003F934F935F936F937F938F939F93AF9352
:101E4000BF93EF93FF93E091A404F091A504309722
:101E500009F01995FF91EF91BF91AF919F918F91EB
:101E60007F916F915F914F913F912F910F900BBE9A
:101E70000F900FBE0F901F9018951F920F920FB6E4
:101E80000F9211240BB60F922F933F934F935F93B2
:101E90006F937F938F939F93AF93BF93EF93FF9332
:101EA000E091A204F091A304309709F01995FF91F5
:101EB000EF91BF91AF919F918F917F916F915F91C2
:101EC0004F913F912F910F900BBE0F900FBE0F902F
:101ED0001F9018951F920F920FB60F9211240BB6F8
:101EE0000F922F933F934F935F936F937F938F93B3
:101EF0009F93AF93BF93EF93FF93E091A004F09172
:101F0000A104309709F01995FF91EF91BF91AF911E
:101F10009F918F917F916F915F914F913F912F9101
:101F20000F900BBE0F900FBE0F901F9018951F9231
:101F30000F920FB60F9211240BB60F922F933F936F
:101F40004F935F936F937F938F939F93AF93BF93C1
:101F5000EF93FF93E0919E04F0919F04309709F076
:101F60001995FF91EF91BF91AF919F918F917F91C3
:101F70006F915F914F913F912F910F900BBE0F90FA
:101F80000FBE0F901F9018951F920F920FB60F92D1
:101F900011240BB60F922F933F934F935F936F9340
:101FA0007F938F939F93AF93BF93EF93FF93E091B2
:101FB0009C04F0919D04309709F01995FF91EF91E1
:101FC000BF91AF919F918F917F916F915F914F9151
:101FD0003F912F910F900BBE0F900FBE0F901F904F
:101FE00018951F920F920FB60F9211240BB60F92F5
:101FF0002F933F934F935F936F937F938F939F9311
:10200000AF93BF93EF93FF93E0919A04F0919B04F9
:10201000309709F01995FF91EF91BF91AF919F9182
:102020008F917F916F915F914F913F912F910F9081
:102030000BBE0F900FBE0F901F9018951F920F921E
:102040000FB60F9211240BB60F922F933F934F931D
:102050005F936F937F938F939F93AF93BF93EF9310
:10206000FF93E0919804F0919904309709F0199545
:10207000FF91EF91BF91AF919F918F917F916F9160
:102080005F914F913F912F910F900BBE0F900FBE1C
:102090000F901F9018951F920F920FB60F92112458
:1020A0000BB60F922F933F934F935F936F937F9352
:1020B0008F939F93AF93BF93EF93FF93E091960419
:1020C000F0919704309709F01995FF91EF91BF9126
:1020D000AF919F918F917F916F915F914F913F91C0
:1020E0002F910F900BBE0F900FBE0F901F90189561
:1020F0001F920F920FB60F9211240BB60F922F93CF
:102100003F934F935F936F937F938F939F93AF937F
:10211000BF93EF93FF93E0919404F091950430976F
:1021200009F01995FF91EF91BF91AF919F918F9118
:102130007F916F915F914F913F912F910F900BBEC7
:102140000F900FBE0F901F9018951F920F920FB611
:102150000F9211240BB60F922F933F934F935F93DF
:102160006F937F938F939F93AF93BF93EF93FF935F
:10217000E0919204F0919304309709F01995FF9142
:10218000EF91BF91AF919F918F917F916F915F91EF
:102190004F913F912F910F900BBE0F900FBE0F905C
:1021A0001F9018951F920F920FB60F9211240BB625
:1021B0000F922F933F934F935F936F937F938F93E0
:1021C0009F93AF93BF93EF93FF93E0919004F091AF
:1021D0009104309709F01995FF91EF91BF91AF915C
:1021E0009F918F917F916F915F914F913F912F912F
:1021F0000F900BBE0F900FBE0F901F9018951F935E
:10220000CF93DF931F92CDB7DEB72FB72983F89412
:102210001981009709F444C08837910531F461E0D1
:1022200080E00E945A0360E104C0803C910519F4EB
:1022300062E080E033C08C34910511F464E0F9CFA2
:102240008038910511F468E0F4CF8434910511F4DD
:1022500060E2EFCF803B910511F460E4EACF883B68
:10226000910511F460E8E5CF883C910511F461E037
:1022700014C08039910511F468E00FC0803A9105CF
:1022800011F460E10AC0803221E0920711F460E2AB
:1022900004C08334914021F460E481E00E945A0339
:1022A0001FBF0F90DF91CF911F9108951F93CF9380
:1022B000DF931F92CDB7DEB72FB72983F89419812A
:1022C000009709F444C08837910531F461E080E05B
:1022D0000E94720360E104C0803C910519F462E041
:1022E00080E033C08C34910511F464E0F9CF80387C
:1022F000910511F468E0F4CF8434910511F460E2A3
:10230000EFCF803B910511F460E4EACF883B910563
:1023100011F460E8E5CF883C910511F461E014C048
:102320008039910511F468E00FC0803A910511F4ED
:1023300060E10AC0803221E0920711F460E204C03B
:102340008334914021F460E481E00E9472031FBF56
:102350000F90DF91CF911F9108958038910529F456
:102360007093AF046093AE0408958039910529F409
:102370007093A7046093A6040895803A910529F408
:1023800070939F0460939E0408958032914021F4DD
:10239000709397046093960408958038910529F40A
:1023A0007093AD046093AC0408958039910529F4CD
:1023B0007093A5046093A4040895803A910529F4CC
:1023C00070939D0460939C0408958032914021F4A1
:1023D000709395046093940408950E9403030E94EF
:1023E0003E030E94DA040E9407070E94EF01F9CF22
:1023F0000C942E02CF93DF93EC010E94020289819C
:102400009A81DF91CF910C940305DB018F939F9309
:102410003AD0BF91AF91A29F800D911DA39F900DC7
:10242000B29F900D11240895AA1BBB1B51E107C058
:10243000AA1FBB1FA617B70710F0A61BB70B881F54
:10244000991F5A95A9F780959095BC01CD010895E3
:1024500097FB072E16F4009406D077FD08D0E4DF32
:1024600007FC05D03EF4909581959F4F0895709597
:1024700061957F4F0895EE0FFF1F881F8BBF079058
:10248000F691E02D199421D0A59F900DB49F900D49
:10249000A49F800D911D112408950024A7FD009490
:1024A0002A0F301D401D501D601D701D801D901D88
:1024B00008950024A7FD00942A1730054005500513
:1024C00060057005800590050895A29FB001B39F37
:1024D000C001A39F700D811D1124911DB29F700D2D
:1024E000811D1124911D08958F929F92AF92BF92EA
:1024F000CF92DF92EF92FF92CF93DF93EC0168814E
:1025000079818A819B81611571058105910521F48D
:1025100064E279ED8BE597E02DE133EF41E050E0A7
:1025200041D049015A019B01AC01A7EAB1E4ABDFFC
:102530006B017C01ACEEB4EFA501940151D0DC013C
:10254000CB018C0D9D1DAE1DBF1DB7FF03C00197B4
:10255000A109B04888839983AA83BB839F77DF91C1
:10256000CF91FF90EF90DF90CF90BF90AF909F9072
:102570008F900895B9CF80E092E0B6CFA0E0B0E0B0
:102580008093000290930102A0930202B093030291
:102590000895FB01DC0102C001900D9241505040B2
:1025A000D8F70895052E97FB16F400940FD057FD29
:1025B00005D01AD007FC02D046F408C050954095CB
:1025C000309521953F4F4F4F5F4F089590958095DF
:1025D000709561957F4F8F4F9F4F0895B7FF53CFF1
:1025E00052DF821B930B0895A1E21A2EAA1BBB1B7C
:1025F000FD010DC0AA1FBB1FEE1FFF1FA217B307CF
:10260000E407F50720F0A21BB30BE40BF50B661FE4
:10261000771F881F991F1A9469F7609570958095A8
:1026200090959B01AC01BD01CF010895F894FFCFB7
:10263000010000000902170201486F6C6120736FEE
:1026400079206E6F646F00486F6C6120736F792022
:10265000636F6F7264696E61646F7200008785E1F9
:0426600085E98585FE
:00000001FF
