S00D00004941434B322E73726563CD
S1130000B8C00000D7C00000D5C00000D3C00000B5
S1130010D1C00000CFC00000CDC00000CBC00000A4
S1130020C9C00000C7C00000C5C00000C3C00000B4
S1130030C1C00000BFC00000BDC00000BBC00000C4
S1130040B9C000000C94B30F0C94E00F0C940D1085
S11300500C94860FAFC00000ADC00000ABC0000020
S1130060A9C00000A7C00000A5C00000A3C00000F4
S1130070A1C000009FC000009DC000009BC0000004
S11300800C9467100C9494100C94C1100C943A10B6
S113009091C000008FC000008DC000008BC0000024
S11300A089C0000087C000000C941B110C944811F7
S11300B00C9475110C94EE107DC000000C94CF11BB
S11300C00C94FC110C9429120C94A21173C000001E
S11300D071C000006FC000006DC000006BC0000064
S11300E069C000000C94330A0C943D0A0C94290A4C
S11300F00C94A8090C94D3090C94470A0C947D0918
S11301000C94FE0957C0000055C0000053C0000005
S113011051C000004FC000000C945B0A0C94510ABB
S11301200C94650A0C946F0A0C94790A0C94830A53
S11301300C948D0A000727071B0734071B07F306D7
S11301400D071B071B071B071B071B07C7061B07FE
S11301501B071B071B071B071B0753071B071B0753
S11301608C0704030302020100FFFEFDFCFBF9F708
S1130170F4EF11241FBECFEFD1E8DEBFCDBF00E006
S11301800CBF12E0A0E0B2E0E0E7F9E200E00BBF50
S113019002C007900D92A830B107D9F725E0A8E076
S11301A0B2E001C01D92AE37B207E1F70E9484139A
S11301B00C94B61425CF0E942E0F20910C022223FA
S11301C0D9F040917D0530E020910C02642F732F0B
S11301D00E94AD13FB018FEF9FEF642F732F0E94DA
S11301E0AD1330E0629FC001639F900D729F900D2C
S11301F011248E0F9F1F089560917D0570E00E9469
S1130200AD13CB0108950E94330F0E94570F109233
S113021008021092090210920A0210920B02109224
S11302200E0210920D020C94640F0E94410F109262
S11302300C020895E8DFF9DF0C94480F0F931F9325
S1130240CF93DF93EC010E942E0F8C01BE0180E05E
S113025090E020917D0530E040E050E00E949E1344
S1130260DC01CB01A80160E070E0480F591F6A1F50
S11302707B1F409308025093090260930A02709313
S11302800B02409108025091090260910A02709198
S11302900B02AB01662777274093080250930902AB
S11302A060930A0270930B02409108025091090274
S11302B060910A0270910B024115510561057105A7
S11302C091F0409108025091090260910A027091E4
S11302D00B020196080F191F10930E0200930D02D2
S11302E00E94330F08C0080F191F10930E020093C9
S11302F00D020E943A0F80910D0290910E028436F5
S1130300910530F48C599F4F90930E0280930D0207
S113031080910D0290910E020E944C0FDF91CF91BB
S11303201F910F91089510920C020E94660F809302
S11303307D0508958091080290910902A0910A0216
S1130340B0910B020097A105B105C9F08091080294
S113035090910902A0910A02B0910B020197A109A0
S1130360B1098093080290930902A0930A02B09302
S11303700B020097A105B10511F40E943A0F809178
S11303800C028F5F80930C0290917D05891748F0D1
S113039010920C02E0910F02F0911002309709F0D4
S11303A0199508950E94330FE0911102F091120201
S11303B0309709F0199508959093100280930F02D5
S11303C008959093120280931102089504C061501D
S11303D07109810991096115710581059105B9F7C3
S11303E00895809106028823D1F18091130290919F
S11303F014020297A4F580910502882381F180916B
S11304000402882369F04CE050E060E370E085E882
S113041094E00E946B146CE085E894E0F0D00FC087
S11304204CE050E061E370E08FE095E00E946B14D3
S11304306CE08FE095E0E3D081E0809304021092B9
S11304400502809113029091140201969093140274
S11304508093130266ED74E180E090E0B7CF0895D5
S1130460CF93DF932091060221111CC0EC018EE78B
S1130470E1E9F4E0DF011D928A95E9F7EF81F8855F
S11304808EE7A1E9B4E001900D928A95E1F78981A4
S11304909A8154D36CE08BE994E0B1D08091060248
S11304A0882339F081E0809305021092040280E4ED
S11304B089B9DF91CF91089508954F925F926F9219
S11304C07F928F92AF92CF92EF920F931F93CF931D
S11304D0DF93CDB7DEB7A9E8B0E0AE19B109FD01ED
S11304E0E95EFD4F3F01EE2079F0D80144244A949F
S11304F04E0C512C9FEF491A590A040D151D9D915C
S11305009193A017B107D9F7423061F43BE03E0D57
S1130510D30140916405509165055E934E9340E08C
S113052050E826C0D301189731E13E0DE8E5F5E027
S113053090819C93918111969C931197928112962C
S11305409C931297938113969C931397948114967A
S11305509C931497958115969C931597968116965E
S11305609C931697978117969C93179740E050ECAD
S1130570823059F4FB0180819181FD019293829331
S11305803F01CA01806498600FC03D01F8E06F1A12
S113059071083A5F88E0FB01D30101900D928A95BE
S11305A0E1F7CA0180649C604EEF5AECF301329784
S11305B05183408331972083C11002C0816001C000
S11305C08162F301359791838083D30116973C931D
S11305D0B0931F02A0931E02482D6A2D87E192E07A
S11305E00E943A0EDF91CF911F910F91EF90CF901F
S11305F0AF908F907F906F905F904F9008958F92FF
S1130600AF92CF92EF920F931F93CF93DF931F92EA
S11306101F92CDB7DEB72FEF3FEF3A8329832091A6
S1130620150230911602A9014F5F5F4F50931602D5
S113063040931502812C6894AA24A1F8C12CE62EBB
S11306408C0142E0BE016F5F7F4F82E036DF0F9086
S11306500F90DF91CF911F910F91EF90CF90AF90BA
S11306608F90089586E00C94670D0895CF93DF93DF
S113067000D000D0CDB7DEB745D036D0BAD18BD5B7
S11306808111FFCF789481E090E09A8389838EEF83
S11306909AEC9C838B838CE08D831E82BE016F5FFA
S11306A07F4F83E50E94960BBE016D5F7F4F80E50F
S11306B00E94960BBE016B5F7F4F80E00E94960BF9
S11306C0BE016A5F7F4F84E00E94960B62E080E087
S11306D00E94760EC7DF26960FB6F894DEBF0FBED3
S11306E0CDBFDF91CF9108955E9A569AA29A9A9AB5
S11306F09EB18DB184608E7F8DB9892F85608EB94E
S113070008950895CF93DF931F92CDB7DEB78FEF8F
S113071080936400809365008FB78983F8948981FE
S11307205F9350E85093610050E0509361005F91F3
S11307308FBF0F90DF91CF910895CF93DF931F92D6
S1130740CDB7DEB79FB79983F8949981823040F48E
S1130750E82FF0E0EC59FF4F6095808168236083B7
S11307609FBF0F90DF91CF910895CF93DF931F9296
S1130770CDB7DEB79FB79983F8949981823038F466
S1130780E82FF0E0EC59FF4F8081682B60839FBF16
S11307900F90DF91CF9108958091A602882319F0DC
S11307A081E080934F0508951F93CF93DF931F92A9
S11307B0CDB7DEB780911B0590911C0501969093EF
S11307C01C0580931B058FB78983F8941981809148
S11307D0A5028F3FE9F190E0FC01EE0FFF1F9C01A1
S11307E0220F331F220F331F220F331FE20FF31F79
S11307F0E35EFA4F218521112BC0FC01EE0FFF1F90
S1130800880F991F880F991F880F991FE80FF91FE8
S1130810E35EFA4F80819181A281B38120911B050F
S113082030911C052A173B0799F408DD8091A50235
S113083090E0FC01EE0FFF1F880F991F880F991F8E
S1130840880F991FE80FF91FE35EFA4F81E0818753
S11308501FBF0F90DF91CF911F9108950F931F93A6
S1130860CF93DF93C82F8F3F09F460C000911B051D
S113087010911C05A0DC40911B0550911C05041728
S11308801507A1F7D0E060E070E0FE01EE0FFF1F56
S11308909E01220F331F220F331F220F331FE20F3B
S11308A0F31FE35EFA4FBA0155274427A0E0B0E0F6
S11308B0482B592B6A2B7B2B80819181A281B38198
S11308C0841B950BA60BB70B8F3F2FEF9207A20744
S11308D02FE7B20738F59E01220F331F220F331F73
S11308E0220F331FFE01EE0FFF1FE20FF31FE35E23
S11308F0FA4F218521111BC0009721E0A207B10501
S1130900B0F49CDCCE01880F991FCC0FDD1FCC0FF7
S1130910DD1FCC0FDD1FC80FD91FC35EDA4F81E086
S1130920898705C081E080934F0501C06CDCDF91AD
S1130930CF911F910F91089580914F05882309F459
S113094057C010924F058091A602882309F450C025
S11309508091A4028F3F59F48091A3028F3F39F410
S11309608091A5028093A3028093A40215C02091D4
S1130970A5028091A30290E0FC01EE0FFF1F880FF7
S1130980991F880F991F880F991FE80FF91FE35EBD
S1130990FA4F20872093A3028091A50290E0FC01E6
S11309A0EE0FFF1F880F991F880F991F880F991F3B
S11309B0E80FF91FE35EFA4F80858093A50220912A
S11309C0A30230E0F901EE0FFF1F220F331F220FA5
S11309D0331F220F331FE20FF31FE35EFA4F9FEF23
S11309E090879091A60291509093A602911136CFD0
S11309F008951092A60210924F0510921C051092B1
S1130A001B058FEF8093A5028093A4028093A30219
S1130A10EDE1F5E02FE435E08087158214823A9603
S1130A20E217F307C9F71092A20284ED93E0C4DC45
S1130A308CEC93E0C6DC77CC08950F931F93CF938F
S1130A40DF931F921F92CDB7DEB78FB78A83F894D6
S1130A501A8172DF1FBF1FEF012F37C08FB7898341
S1130A60F89429818091A40290E0DC01AA0FBB1FB5
S1130A70880F991F880F991F880F991FA80FB91FF6
S1130A80A35EBA4F18969C9118971496ED91FC9119
S1130A90159716964D915C91179718961C93189775
S1130AA015961C921E92149717961C921E921697D6
S1130AB019961C929093A4029F3F11F40093A302F1
S1130AC02FBF309711F0CA0119958091A4028F3F6E
S1130AD029F60F900F90DF91CF911F910F910895F8
S1130AE080E00895AACF0895CF93DF9387EA92E038
S1130AF0B0D0CCEAD2E088EB92E099838883BE013F
S1130B0087EA92E0ADD083E493E09D838C8360EB2D
S1130B1072E087EA92E0A4D08EEC93E0998788870C
S1130B2064EB72E087EA92E09BD0DF91CF91089565
S1130B3060E070E087EA92E0B8C00895009721F081
S1130B40BC0187EA92E08CC008958F929F92AF9285
S1130B50BF92CF92DF92EF92FF920F931F93CF93A6
S1130B60DF931F92CDB7DEB72FB72983F89489801E
S1130B70DC0114962C91222309F456C07A01962E96
S1130B805C01FC0100811181452BE1F00115110587
S1130B9009F44DC0680101C08901D70112966D9115
S1130BA07C911397ED91FC91D8018D919C911995AD
S1130BB0811109C0F80122813381680121153105B1
S1130BC059F735C068010115110599F1911031C02B
S1130BD0D5018D919C9111970817190731F4F801EB
S1130BE0828193818D939C9308C0D80112968D9134
S1130BF09C911397F60193838283D50112968D916C
S1130C009C9113970817190721F41396DC92CE923E
S1130C101297F50184818150848380819181892B8D
S1130C2041F41382128205C000E010E002C000E02B
S1130C3010E08FBEC8010F90DF91CF911F910F91EB
S1130C40FF90EF90DF90CF90BF90AF909F908F90E8
S1130C500895FC0111821082138212821482089575
S1130C60CF93DF931F92CDB7DEB7FC018FB7898393
S1130C70F89499818481811103C07183608306C0D3
S1130C80A281B38113967C936E93129773836283CC
S1130C90DB0113961C921E92129784818F5F8483CA
S1130CA09FBF0F90DF91CF910895AB0160E04DCFCE
S1130CB0089504C061507109810991096115710594
S1130CC081059105B9F708950F931F93CF938091F0
S1130CD041018F718830A1F481E080934F0189E054
S1130CE080934201C3E00FE411E0F801808180FDAC
S1130CF007C063E970E080E090E0DBDFC150A9F752
S1130D00CF911F910F9108951F93CF93DF931F925B
S1130D10CDB7DEB7182F809177058F3051F51F308E
S1130D2009F438C110927B0589EB9AE0E1D28FB7C0
S1130D308983F89499817894E9E3F1E080818D7F47
S1130D40808380917B058823E1F39FBF8FEF80939D
S1130D504F0188E480934E01EDE4F1E080818460EA
S1130D608083183011F0133021F488E080937705E4
S1130D7011C1812F90E0FC013397E731F10508F0B0
S1130D805AC08827E656FF4F8F4F0C94D41383E044
S1130D9080934201EDE4F1E080818B7F80830E94A7
S1130DA0541480936D01EEE6F1E080819770887FA2
S1130DB0892B80838FEF80934F0180E880934E01CD
S1130DC062E070E080E090E074DFE9E3F1E08081CC
S1130DD0826080836FE270E080E090E06ADF8FE001
S1130DE080937705D7C080917705883021F188E01A
S1130DF08093420162E070E080E090E05ADF1BC023
S1130E00809177058830B9F083E08093420162E0F5
S1130E1070E080E090E04DDF0EC08091770588306F
S1130E2049F018F4863039F409C0863139F0893133
S1130E3011F404C049DFE1E4F1E0A6C089E0809345
S1130E40420162E070E080E090E033DFF4CF809113
S1130E507705883019F0893071F302C035DFEBCFA4
S1130E6084E080934201E7CF80917705893041F097
S1130E7018F4883071F0DFCF863111F08931D9F65A
S1130E8086E08093420162E070E080E090E011DF50
S1130E90D2CF1ADF86E08093420162E070E080E006
S1130EA090E007DFC8CF80917705883091F018F47F
S1130EB08630C9F0C0CF893019F0893109F0BBCF31
S1130EC086E18093420162E070E080E090E0F1DE30
S1130ED0B2CFFADE86E18093420162E070E080E006
S1130EE090E0E7DEA8CF89E08093420162E070E001
S1130EF080E090E0DEDE809141018F718093770580
S1130F00893009F047C086E18093420162E070E0D5
S1130F1080E090E0CEDE8FCF80917705883051F16C
S1130F2018F4863079F087CF893019F0863151F082
S1130F3082CF89E18093420162E070E080E090E03A
S1130F40B8DE79CF89E08093420162E070E080E00E
S1130F5090E0AFDE809141018F71809377058930F5
S1130F60C9F489E18093420162E070E080E090E09E
S1130F70A0DE61CFA9DE89E18093420162E070E0E6
S1130F8080E090E096DE57CF80818F718093770563
S1130F908F31D1F30F90DF91CF911F910895CF93AB
S1130FA0DF9380915005882319F180917C0581118C
S1130FB01FC08091590490915A04892B41F48BE805
S1130FC0B7DD90935A0480935904892B89F01092C9
S1130FD05005CCE4D1E088818F77888363E070E0AA
S1130FE080E090E066DE88818068888386E18CDE1C
S1130FF080915505882341F060E070E081E595E03B
S113100054DE009709F024D580917C05823009F4E0
S113101085D5DF91CF91089504C06150710981098C
S113102091096115710581059105B9F70895FF923C
S11310300F931F93CF93DF9386E066DE8630E1F74C
S1131040E5E5F1E080818F77808310924E0168940A
S1131050FF24F3F8C0E0D0E006E411E0F801908149
S1131060CC0FDD1FCC0FDD1F9076292F30E0369595
S11310702795329522952F7023273F702327C22B63
S1131080D32B62E070E080E090E0C6DFFA94F110C8
S1131090E5CF83E039DE8FEF80934F0188E48093BE
S11310A04E01CE010E945714DF91CF911F910F91F1
S11310B0FF900895FF920F931F93CF93DF93F82E21
S11310C0C9E3D1E088818D7F888361E471E080E0A9
S11310D090E0A2DF88818E7F888362E070E080E008
S11310E090E09ADF88818160888366E870E080E020
S11310F090E092DF809141018F71CAE001E411E038
S11311000AC066E870E080E090E086DFF801808144
S11311108F71C150C9F18830A1F78093770587DFBB
S11311200E94541480936D01EEE6F1E08081977083
S1131130887F892B8083808180628083ECE4F1E066
S113114080818068808388E480934E018FEF809350
S11311505601EDE4F1E080818C7F82608083AAE413
S1131160B1E08C91807F83608C93808188608083E0
S1131170808184608083F11030D27DD210927C050E
S11311801092500580E001C085E8DF91CF911F9156
S11311900F91FF900895CF92DF92EF92FF920F93F9
S11311A01F93CF93DF9314BE80E180933501809326
S11311B03401809333018093320192DC81116DC03C
S11311C060E481E0BADAC9E3D1E088818160888390
S11311D088818D7F88836BEF71E080E090E01CDF75
S11311E088818E7F888362E070E080E090E014DF85
S11311F088818160888366E870E080E090E00CDF9D
S1131200809141018F71CAE001E411E00BC066E8EE
S113121070E080E090E000DFF80180818F71C150C0
S113122009F451C0883099F78093770580915C0167
S1131230843909F048C035C00E945414F8018193E0
S11312408F01EC15FD05C1F7F70120813181428141
S113125053816481758186819781AFEF0E94F51374
S1131260ADEF0E94011421F018F008E515E0E4CF79
S113127087E99AE038D088EA9AE030D089EB9AE09E
S113128037D032DC8BE854DC90935A0480935904B1
S113129081E595E0DEDCCBD517C0C5E815C0C5E80F
S11312A013C081E007DFC82F8111F9CF0F2EF8E5B5
S11312B0EF2EF5E0FF2EF02D0F2EF0E6CF2EF5E009
S11312C0DF2EF02DC1CFC5E88C2FDF91CF911F9178
S11312D00F91FF90EF90DF90CF9008959093620468
S11312E08093610408959093600480935F0408954B
S11312F090935C0480935B0408951F920F920FB641
S11313000F9211240BB60F922F933F934F935F9339
S11313106F937F938F939F93AF93BF93EF93FF93B9
S1131320E0916104F09162041995FF91EF91BF91EE
S1131330AF919F918F917F916F915F914F913F9169
S11313402F910F900BBE0F900FBE0F901F9018950A
S11313501F920F920FB60F9211240BB60F922F9378
S11313603F934F935F936F937F938F939F93AF9329
S1131370BF93EF93FF93E0915F04F091600419959C
S1131380FF91EF91BF91AF919F918F917F916F9159
S11313905F914F913F912F910F900BBE0F900FBE15
S11313A00F901F9018951F920F920FB60F92112451
S11313B00BB60F922F933F934F935F936F937F934B
S11313C08F939F93AF93BF93EF93FF93E0915D044B
S11313D0F0915E041995FF91EF91BF91AF919F91A8
S11313E08F917F916F915F914F913F912F910F90CA
S11313F00BBE0F900FBE0F901F9018951F920F9267
S11314000FB60F9211240BB60F922F933F934F9365
S11314105F936F937F938F939F93AF93BF93EF9358
S1131420FF93E0915B04F0915C041995FF91EF91B7
S1131430BF91AF919F918F917F916F915F914F91E8
S11314403F912F910F900BBE0F900FBE0F901F90E6
S113145018951F920F920FB60F9211240F900FBE82
S11314600F901F9018951F920F920FB60F92112490
S11314700F900FBE0F901F9018951F920F920FB6EA
S11314800F9211240F900FBE0F901F9018951F926A
S11314900F920FB60F9211240F900FBE0F901F9052
S11314A018951F920F920FB60F9211240F900FBE32
S11314B00F901F9018951F920F920FB60F92112440
S11314C00F900FBE0F901F9018951F920F920FB69A
S11314D00F9211240F900FBE0F901F9018951F921A
S11314E00F920FB60F9211240F900FBE0F901F9002
S11314F018951F920F920FB60F9211240F900FBEE2
S11315000F901F9018951F920F920FB60F921124EF
S11315100F900FBE0F901F9018951F920F920FB649
S11315200F9211240F900FBE0F901F9018951F93C8
S1131530CF93DF931F92CDB7DEB78FB78983F8942B
S1131540198119D21FBF0F90DF91CF911F91089578
S11315501F93CF93DF931F92CDB7DEB78FB78983E5
S1131560F8941981A6D31FBF0F90DF91CF911F91DB
S1131570089581E080937B05089585FD03C0982F2D
S11315809F7304C0982F91959F719195E2E6F1E0C5
S11315902491291754F48491803EB4F08032B4F439
S11315A08823CCF48F71806216C0E1E7F1E02491C6
S11315B092178CF48491803E5CF080325CF4882332
S11315C054F48F71806207C080E205C08FE103C0CC
S11315D080E201C08FE180680895CF93DF93C8E56E
S11315E0D5E084E08C8B83E08D8B2FEF3FEF3F873A
S11315F02E873D872C879BE09B8B188E40E058EF0D
S11316006FEF77E0488759876A877B872AE031E064
S1131610398B288B9AE0998F92E09A8F95E09B8F73
S11316208C8F84E8AADF8F8B81E08A8B1E8ADF91FE
S1131630CF91089585FD02C08F7303C081958F718A
S11316408195E2E6F1E0949189173CF4E3E6F1E058
S113165021E0949189173CF001C020E098174CF4E4
S11316608FEF820F08952F5F3196203191F780E03C
S11316700895822F0895CF93DF93E8E5F5E08685FA
S113168080936201878580936301E4E6F1E0A8E535
S1131690B5E08D918193EC3631E0F307D1F7E8E5BD
S11316A0F5E084858093600185858093610148E439
S11316B051E0DA018C912289B0E22B9F9001112430
S11316C020768F79822BDA018C93CFE6D1E0888162
S11316D095899F70807F892B88832EE631E0D9011C
S11316E08C919689990F990F990F9870877F892B00
S11316F08C932881938DB0E19B9FC0011124922F7C
S11317009F70892B8883DA018C9193899F71807EE5
S1131710892B8C9387898EDFE5E4F1E09081907FBB
S11317208F70892B8083DF91CF910895CF93DF93BE
S11317308E3441F0893561F4FB0180818093740516
S113174080E00BC1FB01808180936C0580E005C1C2
S1131750909177059F3009F4DCC08B3009F4C9C03F
S113176080F4EB01823009F484C020F4882309F466
S113177046C0D1C0833009F48CC0843009F45AC007
S1131780CAC0833579F128F48F3451F08035E9F0FB
S1131790C2C0873509F456C0803F09F48BC0BBC072
S11317A0FB018081E8E5F5E0858B938D981710F4B3
S11317B090936D05EFE6F1E0808190916D059F7047
S11317C0807F892B808380E0C8C0FB019081818168
S11317D0E8E5F5E09687878790936201809363013B
S11317E080E0BBC0FB0190818181E8E5F5E094874E
S11317F08587909360018093610180E0AEC0809101
S11318007C0581118AC0888140E058EF6FEF77E052
S1131810082E04C076956795579547950A94D2F794
S113182040FF7DC0983009F480C088E06DDA8830CC
S1131830E1F786C080917C05811173C08881811194
S113184072C08BC0FB019081E8E5F5E0938F858938
S1131850981710F490936D05EFE6F1E08081282F3E
S11318602F7030E1939FC0011124822B808380E08C
S113187074C08881C8E5D5E08F8B7FDE8F8BDADE7C
S1131880E5E4F1E09081907F8F70892B808380E084
S113189064C0888180936A05E8E4F1E0208130E245
S11318A0839FC00111248076922F9F79892B808396
S11318B080E053C0FB01B081A18152814381348116
S11318C0258196818781E8E5F5E0B083A183528381
S11318D043833483258396838783E4E6F1E0A8E594
S11318E0B5E08D918193EC3631E0F307D1F780E0D8
S11318F034C0FB01808180936E05EEE6F1E09081B7
S1131900880F880F880F8870977F892B808380E0E9
S113191024C081E822C084EF20C086E81EC088EE7F
S11319201CC086E81AC088EE18C080936B05E8E4F2
S1131930F1E09081907E8F71892B808380E00DC0CF
S1131940888180936B05E8E4F1E09081907E8F714B
S1131950892B808386E1D8D980E0DF91CF910895E7
S113196004C06150710981099109611571058105EE
S11319709105B9F70895CF92DF92EF92FF920F93FA
S11319801F93CF93DF93E0915904F0915A04309759
S113199071F4CCE4D1E088818F77888363E070E0D0
S11319A080E090E0DDDF88818068888348C0009112
S11319B0470110917B0111230CF441C0E080F180B8
S11319C082E0810FEBE8F0E0E81BF109E701CE0FBC
S11319D0DF1FC12ED12CA6014F5F5F4F60E871E07D
S11319E0CE0170D7FE011293D7011896FC93EE93A3
S11319F01797EC0DFD1D02836091590470915A04F0
S1131A0081E595E02DD98BE893D890935A0480937F
S1131A105904892B21F481E0809350050DC0CCE456
S1131A20D1E088818F77888363E070E080E090E084
S1131A3097DF88818068888380E480934F01DF91F9
S1131A40CF911F910F91FF90EF90DF90CF90089569
S1131A50CF93DF93AC01FC01C081D181AF81B88504
S1131A608C9180937805E82FF0E03196EA0FFB1F04
S1131A70808131813D3320F4311103C031E001C054
S1131A803CE382958695869583702FEF829FC001F3
S1131A901124389FB001399F700D11249B01A3E8D4
S1131AA0BDE28AD696958795929582958F708927FF
S1131AB09F7089278F3F910511F008F08FEF808385
S1131AC05A834983CE012ED6DF91CF910895909108
S1131AD07C05911116C0883029F416D9109250054E
S1131AE088E008958091590490915A04892B21F03B
S1131AF086E10AD986E0089581E08093500586E066
S1131B00089586E8089504C0615071098109910916
S1131B106115710581059105B9F7089510927C0549
S1131B2080916304833069F028F4882391F0813034
S1131B3031F00DC0853039F0873039F008C087E8BE
S1131B4009C081EE07C089EE05C085E803C085E8B9
S1131B5001C080E06091560570915705E0C5089575
S1131B601F93CF93DF931F92CDB7DEB7182F662351
S1131B7081F0ECE6F1E020819091740530E1939FCF
S1131B80C0011124922F9F70892B80831230E0F4BE
S1131B9008C0ECE6F1E080818F7080831230A0F4FD
S1131BA00DC0ECE6F1E0808190916C05990F9E7078
S1131BB0817F892B808310926F011AC0ECE6F1E0DB
S1131BC080818E60808314C0E8E5F5E0838D20E198
S1131BD0829FC00111249589892B80936F01ACE603
S1131BE0B1E08C919489990F9E70817F892B8C939D
S1131BF089E18AD88931E1F71130A1F4809178051F
S1131C00833140F061E073E080E090E07CDF10928B
S1131C1078050DC06BEA70E080E090E074DF10920C
S1131C20780505C06CE070E080E090E06CDF8FB771
S1131C308983F8941981E9E3F1E0808182608083EB
S1131C400000000080818D7F808360917905709110
S1131C507A05FB01408150E04150510980E891E050
S1131C6031D681E080937C051FBF0F90DF91CF9127
S1131C701F910895FC0190917C05911116C0F09379
S1131C805705E09356050780F085E02DF0937A051B
S1131C90E09379058081815080937805EF2B39F0AA
S1131CA0862F642F5DDF80E0089586E8089588EE2E
S1131CB0089580917C058130C1F480914201829520
S1131CC0869587708093630482E080937C0580917D
S1131CD0590490915A04892B31F489E015D881E094
S1131CE080935005089586E10FC80895882329F14B
S1131CF0EDE4F1E080818C7F808380818860808343
S1131D00AAE4B1E08C91807F83608C9380818460AD
S1131D1080838081837009F054C080914D0183FFDA
S1131D2052C080914D0182FF50C080914A018F7052
S1131D30833009F04CC080E00895EDE4F1E0808147
S1131D40877F8083AAE4B1E08C91807F87608C9345
S1131D50808184608083613031F480818C7F8160F4
S1131D60808385E817C0623041F4EDE4F1E08081BE
S1131D708C7F8260808385E80DC0662311F0633018
S1131D8041F4EDE4F1E080818C7F808385E860E0BC
S1131D9001C088EE20914D01237030E070E02617D9
S1131DA03707B9F490914D0193FD15C090914D0101
S1131DB092FD13C090914A019F70933079F480E0B2
S1131DC0089585E8089585E8089585E8089585E8E7
S1131DD0089585E8089585E8089585E808958111B2
S1131DE024C0FB018081803D2CF08FEC809364043F
S1131DF06FE012C0873A2CF486EA8093640460E0B2
S1131E000BC080936404082E000C990B865A9F4FD4
S1131E1063E070E0B6D46F5FE5E5F1E08081807F38
S1131E206F70682B608380E0089584EF089586EADC
S1131E308093640464E674E080E0D1DF61E080E0D4
S1131E400E949D0360E180E00E949D0380E008956C
S1131E500C949A0108950C94D20108958091840001
S1131E60909185000895EFE6F0E080818D7F808376
S1131E70B19A0895B19AEFE6F0E0808182608083A0
S1131E800895EFE6F0E0808181608083B09A089540
S1131E9080E890E082C30895E9E8F0E02081922B85
S1131EA09083E8E8F0E09081892B80830895CF93B4
S1131EB0DF931F92CDB7DEB78FB78983F8948981FA
S1131EC00F90DF91CF9108958FBF0895CF93DF9343
S1131ED080E890E0EBD268E27FE080E890E0D4D341
S1131EE0CFE6D0E08881816088836BE27FE080E880
S1131EF090E0EAD388818D7F8883E1E8F0E08081F7
S1131F008160808388E0DF91CF9108951F920F92C2
S1131F100FB60F9211240BB60F922F933F934F934A
S1131F205F936F937F938F939F93AF93BF93EF933D
S1131F30FF93E0918304F0918404309709F019959C
S1131F40FF91EF91BF91AF919F918F917F916F918D
S1131F505F914F913F912F910F900BBE0F900FBE49
S1131F600F901F9018951F920F920FB60F92112485
S1131F700BB60F922F933F934F935F936F937F937F
S1131F808F939F93AF93BF93EF93FF93E09181045B
S1131F90F0918204309709F01995FF91EF91BF9168
S1131FA0AF919F918F917F916F915F914F913F91ED
S1131FB02F910F900BBE0F900FBE0F901F9018958E
S1131FC01F920F920FB60F9211240BB60F922F93FC
S1131FD03F934F935F936F937F938F939F93AF93AD
S1131FE0BF93EF93FF93E0917F04F09180043097C7
S1131FF009F01995FF91EF91BF91AF919F918F9146
S11320007F916F915F914F913F912F910F900BBEF4
S11320100F900FBE0F901F9018951F920F920FB63E
S11320200F9211240BB60F922F933F934F935F930C
S11320306F937F938F939F93AF93BF93EF93FF938C
S1132040E0917D04F0917E04309709F01995FF9199
S1132050EF91BF91AF919F918F917F916F915F911C
S11320604F913F912F910F900BBE0F900FBE0F9089
S11320701F9018951F920F920FB60F9211240BB652
S11320800F922F933F934F935F936F937F938F930D
S11320909F93AF93BF93EF93FF93E0917B04F091F1
S11320A07C04309709F01995FF91EF91BF91AF919E
S11320B09F918F917F916F915F914F913F912F915C
S11320C00F900BBE0F900FBE0F901F9018951F928C
S11320D00F920FB60F9211240BB60F922F933F93CA
S11320E04F935F936F937F938F939F93AF93BF931C
S11320F0EF93FF93E0917904F0917A04309709F01B
S11321001995FF91EF91BF91AF919F918F917F911D
S11321106F915F914F913F912F910F900BBE0F9054
S11321200FBE0F901F9018951F920F920FB60F922B
S113213011240BB60F922F933F934F935F936F939A
S11321407F938F939F93AF93BF93EF93FF93E0910C
S11321507704F0917804309709F01995FF91EF9185
S1132160BF91AF919F918F917F916F915F914F91AB
S11321703F912F910F900BBE0F900FBE0F901F90A9
S113218018951F920F920FB60F9211240BB60F924F
S11321902F933F934F935F936F937F938F939F936B
S11321A0AF93BF93EF93FF93E0917504F09176049E
S11321B0309709F01995FF91EF91BF91AF919F91DD
S11321C08F917F916F915F914F913F912F910F90DC
S11321D00BBE0F900FBE0F901F9018951F920F9279
S11321E00FB60F9211240BB60F922F933F934F9378
S11321F05F936F937F938F939F93AF93BF93EF936B
S1132200FF93E0917304F0917404309709F01995E9
S1132210FF91EF91BF91AF919F918F917F916F91BA
S11322205F914F913F912F910F900BBE0F900FBE76
S11322300F901F9018951F920F920FB60F921124B2
S11322400BB60F922F933F934F935F936F937F93AC
S11322508F939F93AF93BF93EF93FF93E091710498
S1132260F0917204309709F01995FF91EF91BF91A5
S1132270AF919F918F917F916F915F914F913F911A
S11322802F910F900BBE0F900FBE0F901F901895BB
S11322901F920F920FB60F9211240BB60F922F9329
S11322A03F934F935F936F937F938F939F93AF93DA
S11322B0BF93EF93FF93E0916F04F0917004309714
S11322C009F01995FF91EF91BF91AF919F918F9173
S11322D07F916F915F914F913F912F910F900BBE22
S11322E00F900FBE0F901F9018951F920F920FB66C
S11322F00F9211240BB60F922F933F934F935F933A
S11323006F937F938F939F93AF93BF93EF93FF93B9
S1132310E0916D04F0916E04309709F01995FF91E6
S1132320EF91BF91AF919F918F917F916F915F9149
S11323304F913F912F910F900BBE0F900FBE0F90B6
S11323401F9018951F920F920FB60F9211240BB67F
S11323500F922F933F934F935F936F937F938F933A
S11323609F93AF93BF93EF93FF93E0916B04F0912E
S11323706C04309709F01995FF91EF91BF91AF91DB
S11323809F918F917F916F915F914F913F912F9189
S11323900F900BBE0F900FBE0F901F9018951F92B9
S11323A00F920FB60F9211240BB60F922F933F93F7
S11323B04F935F936F937F938F939F93AF93BF9349
S11323C0EF93FF93E0916904F0916A04309709F068
S11323D01995FF91EF91BF91AF919F918F917F914B
S11323E06F915F914F913F912F910F900BBE0F9082
S11323F00FBE0F901F9018951F920F920FB60F9259
S113240011240BB60F922F933F934F935F936F93C7
S11324107F938F939F93AF93BF93EF93FF93E09139
S11324206704F0916804309709F01995FF91EF91D2
S1132430BF91AF919F918F917F916F915F914F91D8
S11324403F912F910F900BBE0F900FBE0F901F90D6
S113245018951F920F920FB60F9211240BB60F927C
S11324602F933F934F935F936F937F938F939F9398
S1132470AF93BF93EF93FF93E0916504F0916604EB
S1132480309709F01995FF91EF91BF91AF919F910A
S11324908F917F916F915F914F913F912F910F9009
S11324A00BBE0F900FBE0F901F9018951F93CF93E4
S11324B0DF931F92CDB7DEB72FB72983F894198124
S11324C0009709F464C08837910549F461E080E01D
S11324D00E949D0360E180E00E949D0358C0803CFF
S11324E0910529F462E080E00E949D0350C08C3481
S11324F0910529F464E080E00E949D0348C080387F
S1132500910529F468E080E00E949D0340C0843472
S1132510910529F460E280E00E949D0338C0803B6D
S1132520910529F460E480E00E949D0330C0883B5B
S1132530910529F460E880E00E949D0328C0883C4E
S1132540910529F461E081E00E949D0320C0803957
S1132550910529F468E081E00E949D0318C0803A47
S1132560910529F460E181E00E949D0310C080324E
S113257021E0920729F460E281E00E949D0307C0F4
S11325808334914021F460E481E00E949D031FBFE5
S11325900F90DF91CF911F9108951F93CF93DF93F5
S11325A01F92CDB7DEB72FB72983F894198100970E
S11325B009F464C08837910549F461E080E00E9421
S11325C0B50360E180E00E94B50358C0803C9105EA
S11325D029F462E080E00E94B50350C08C34910578
S11325E029F464E080E00E94B50348C08038910576
S11325F029F468E080E00E94B50340C0843491056A
S113260029F460E280E00E94B50338C0803B910564
S113261029F460E480E00E94B50330C0883B910552
S113262029F460E880E00E94B50328C0883C910545
S113263029F461E081E00E94B50320C0803991054E
S113264029F468E081E00E94B50318C0803A91053E
S113265029F460E181E00E94B50310C0803221E0DA
S1132660920729F460E281E00E94B50307C0833435
S1132670914021F460E481E00E94B5031FBF0F90F4
S1132680DF91CF911F9108958038910529F47093BB
S113269084046093830408958039910529F4709328
S11326A07C0460937B040895803A910529F4709327
S11326B074046093730408958032914021F47093FC
S11326C06C0460936B0408958038910529F4709329
S11326D082046093810408958039910529F47093EC
S11326E07A04609379040895803A910529F47093EB
S11326F072046093710408958032914021F47093C0
S11327006A046093690408950E9436030E94810359
S11327100E9472050E94CF070E94F101F9CF0C9428
S11327205C020895CF93DF93EC010E94300289810B
S11327309A810E949E05DF91CF910895DB018F93CA
S11327409F9349D0BF91AF91A29F800D911DA39FEC
S1132750900DB29F900D11240895AA1BBB1B51E14B
S113276007C0AA1FBB1FA617B70710F0A61BB70BFD
S1132770881F991F5A95A9F780959095BC01CD01A2
S1132780089597FB072E16F4009406D077FD08D021
S1132790E4DF07FC05D03EF4909581959F4F0895A2
S11327A0709561957F4F0895EE0FFF1F881F8BBFB3
S11327B00790F691E02D1994A29FB001B39FC00138
S11327C0A39F700D811D1124911DB29F700D811D59
S11327D01124911D0895F0DFA59F900DB49F900DD5
S11327E0A49F800D911D112408950024A7FD009439
S11327F02A0F301D401D501D601D701D801D901D31
S113280008950024A7FD00942A17300540055005BB
S1132810600570058005900508958F929F92AF9290
S1132820BF92CF92DF92EF92FF92CF93DF93EC01AE
S1132830688179818A819B81611571058105910582
S113284021F464E279ED8BE597E02DE133EF41E08B
S113285050E048D049015A019B01AC01A7EAB1E418
S1132860BADF6B017C01ACEEB4EFA501940158D042
S1132870DC01CB018C0D9D1DAE1DBF1DB7FF03C038
S11328800197A109B04888839983AA83BB839F7762
S1132890DF91CF91FF90EF90DF90CF90BF90AF90FA
S11328A09F908F900895B9CF80E092E0B6CFA0E0DA
S11328B0B0E08093000290930102A0930202B093CF
S11328C003020895FB01DC0102C001900D92415006
S11328D05040D8F70895DC0101C06D934150504039
S11328E0E0F70895052E97FB16F400940FD057FDDA
S11328F005D01AD007FC02D046F408C05095409584
S1132900309521953F4F4F4F5F4F08959095809597
S1132910709561957F4F8F4F9F4F0895B7FF5BCFA1
S11329205ADF821B930B0895A1E21A2EAA1BBB1B2C
S1132930FD010DC0AA1FBB1FEE1FFF1FA217B30787
S1132940E407F50720F0A21BB30BE40BF50B661F9D
S1132950771F881F991F1A9469F760957095809561
S113296090959B01AC01BD01CF010895F894FFCF70
S10B2970010000000101010057
S9030000FC
